:100000000C94D5370C943F380C943F380C943F38FF
:100010000C943F380C943F380C943F380C943F3884
:100020000C943F380C943F380C943F380C943F3874
:100030000C943F380C94E43A0C94233B0C94C13854
:100040000C943F380C943F380C943F380C943F3854
:100050000C943F380C943F380C943F380C943F3844
:100060000C943F380C943F380C943F380C943F3834
:100070008100450027FF24FF2A902B1C210C22FB26
:10008000850084008903888D81096F0244424700FE
:100090004501B083B300B10125118A1D8B035A5568
:1000A00001200101003808000000000000000000ED
:1000B00000000000000000000000000000004A3DB9
:1000C0004D3DA93DAD3DB43D553D5A3D5F3DBC3D27
:1000D000623D653D683DA33DA63DCC3D0040889115
:1000E000D2E4ADB5B6BEBFFFFFFFFFFFFFFFFFFFCE
:1000F000FFFFFFFFFFFFFFFFFFFFFFFFFFFFFFFF10
:10010000FFFFFFFFFFFFFFFFFFFFFFFFFFFFFFFFFF
:10011000FFFFFFFFFFFFFFFFFFFFFFFFFFFFFFFFEF
:10012000FFFFFFFFFFFFFFFFFFFFFFFFFFFFFFFFDF
:10013000FFFFFFFFFFFFFFFFFFFFFFFFFFFFFFFFCF
:10014000FFFFFFFFFFFFFFFFFFFFFFFFFFFFFFFFBF
:10015000FFFFFFFFFFFFFFDBFFFFFFFFFFFFDBC92D
:10016000FFFFFFFFFFDBC8C1FFFFFFFFFFFFFFFF38
:10017000FFFFFFFFFFE4C9C8FFFFFFDBC9C9C9C913
:10018000FFE4C9C9C9C9C0C0DBC8C9C1C0C0C0C0BB
:10019000C8C9C1C0C0C0C0DBC9C0C0C0C0EDFFFF7E
:1001A000C0C0C0DBFFFFFFFFD2D2C9C8C9C9C9C9DF
:1001B000C9C9C9C9C9C9C9C9C9C1C0C0C0C0C0C0ED
:1001C000C0C0C0C0C0C0C0C0C0C8DBDBE4EDEDE44F
:1001D000FFFFFFFFFFFFFFFFFFFFFFFFFFFFFFFF2F
:1001E000FFFFFFFFFFFFFFFFC9C8D2D2E4FFFFFF01
:1001F000C9C9C9C9C9C8DBEDC0C0C0C1C9C9C9C95D
:10020000C0C0C0C0C0C0C0C8DBDBD2C0C0C0C0C09E
:10021000FFFFFFFFEDC9C0C0FFFFFFFFFFFFFFD2E1
:10022000FFFFFFFFFFFFFFFFFFFFFFFFFFFFFFFFDE
:10023000FFFFFFFFFFFFFFFFCAFFFFFFFFFFFFFF03
:10024000C9C9DBFFFFFFFFFFC0C9C9D2EDFFFFFF38
:10025000C0C0C9C9CAEDFFFFC0C0C0C0C8C9EDFF5A
:10026000EDC9C0C0C0C9C9EDFFFFFFFFE4C8C1C0F0
:10027000FFFFFFEDC9C9C0C0FFFFFFDBC9C1C0C19F
:10028000FFFFEDC9C1C0C0E4FFFFD2C9C0C0DBFFA2
:10029000FFEDC8C1C0C9EDFFFFDBC9C0C0DBFFFF78
:1002A000FFC9C1C0C8EDFFFFC0C0EDFFFFFFFFFFEA
:1002B000C1EDFFFFFFFFFFFFEDFFFFFFFFFFFFFFB0
:1002C000FFFFFFFFFFFFFFFFFFFFFFFFFFFFFFFF3E
:1002D000FFFFFFFFFFFFFFFFFFFFFFFFFFFFFFFF2E
:1002E000FFFFFFFFFFFFFFFFFFFFD2C0C0C0C8D26C
:1002F000FFFFFFDBC0C0C1C8FFFFFFFFD2C0C0C10E
:10030000FFFFFFFFFFCAC0C1FFFFFFFFFFEDC1C03E
:10031000FFFFFFFFFFFFD3C0FFFFFFFFFFFFEDC1A8
:10032000FFFFFFFFFFFFFFD2FFFFFFFFFFFFFFFF0A
:10033000E4FFFFFFFFFFFFFFC9FFFFFFFFFFFFFF1E
:10034000C9D2FFFFFFFFFFFFC1C8FFFFFFFFFFFF95
:10035000C0C9DBFFFFFFFFFFC0C1C9FFFFFFFFFFF9
:10036000C0C1C9E4FFFFFFFFFFC9C0C0D2FFFFFF4C
:10037000E4C9C0C1E4FFFFFFDBC9C0C9EDFFFFFF57
:10038000D2C9C0CAFFFFFFFFCAC1C1D2FFFFFFFF32
:10039000C9C1C0D2FFFFFFFFC9C1C0D2FFFFFFFF2D
:1003A000C9C1C0D2FFEDFFFFFFFFFFFFFFFFFFFF4F
:1003B000FFFFFFFFFFFFFFFFFFFFFFFFFFFFFFFF4D
:1003C000FFFFFFFFFFFFFFFFFFFFFFFFFFB7FFFF85
:1003D000FFFFFFFFFFB7B7FFFFB7FFFFB6B7B7FFDE
:1003E000B7B7B6B6B66FB7B6FFFFFFFFFFFFFFFFA9
:1003F000FFFFFFFFFFFFFFFFFFFFFFFFFFFFFFFF0D
:10040000FFFFFFFFFFFFFFFFFFFFFFFFFFFFFFFFFC
:10041000FFFFFFFFFFFFFFFFFFFFFFFFFFB7FFFF34
:10042000B6FFFFFFFFB7FFFFFFFFFFFFFFFFFFE488
:10043000FFFFFFFFFFFFFFFFFFFFFFFFFFFFFFFFCC
:10044000FFFFFFFFFFFFFFFFFFFFFFFFFFFFFFFFBC
:10045000FFFFFFFFFFFFFFFFFFFFFFFFFFFFFFFFAC
:10046000FFFFFFFFFFFFE4FFC0C0C9DBFFFFFFFF8F
:10047000C9C0C1C9FFFFFFFFD2C0C1C9FFFFFFFF55
:10048000DBC1C0C9FFFFFFFFE4C8C1C9EDFFFFFF2B
:10049000E4C8C1C9E4FFFFFFE4C9C1C9E4FFFFFF2D
:1004A000E4C9C1C9E4FFFFFFFFFFFFFFFFFFFFFF3C
:1004B000FFFFFFFFFFFFFFFFFFFFFFFFFFFFFFFF4C
:1004C000FFFFFFFFFFFFFFFFFFFFFFFFFFFFFFFF3C
:1004D000FFFFFFFFFFFFFFFFFFFFFFFFFFFFFFFF2C
:1004E000FFEDEDEDEDFFFFFFFFFFFFFFFFFFFFFF64
:1004F000FFFFFFFFFFFFFFFFFFFFFFFFFFFFFFFF0C
:10050000FFFFFFFFFFFFFFFFFFFFFFFFFFFFFFFFFB
:10051000FFFFFFFFFFFFFFE4FFFFFFFFFFFFFFD233
:10052000FFFFFFFFFFFFFFD2FFFFFFFFFFFFFFFF08
:10053000FFFFFFFFFFFFFFFFFFFFFFFFFFFFFFFFCB
:10054000FFFFFFFFFFFFFFFFFFFFFFFFFFFFFFFFBB
:10055000D2D2DBFFFFFFFFFFC0C0C0CAFFFFFFFF1B
:10056000C0C0C0C0FFFFFFFFFFFFFFFFFFFFFFFF97
:10057000FFFFFFFFFFFFFFFFFFFFFFFFFFFFFFFF8B
:10058000FFFFFFFFFFFFFFFFFFFFFFFFFFFFFFFF7B
:10059000FFFFFFFFFFFFFFFFFFFFFFFFFFFFFFFF6B
:1005A000FFFFFFFFFFFFFFD2FFFFFFFFFFFFFFFF88
:1005B000FFFFFFFFFFFFFFFFFFFFFFFFFFFFFFFF4B
:1005C000FFFFFFFFFFFFFFFFFFFFFFFFFFFFFFFF3B
:1005D000FFFFFFFFFFFFFFFFFFFFFFFFFFFFFFFF2B
:1005E000C1C1C1C1EDFFFFFFFFFFFFFFFFFFFFDB49
:1005F000FFFFFFFFFFFFDBC9FFFFFFFFFFE4C9C9EC
:10060000FFFFFFFFEDC9C9C0FFFFFFFFCAC9C1C09F
:10061000FFFFFFE4C9C9C0C0FFFFFFD2C9C1C0C00E
:10062000FFFFEDC9C1C0C0C0C9C1C0D2FFD2C8ED73
:10063000C9C0C0D2FFD2C8E4C1C0C1D2FFD2C8E491
:10064000C0C0C1D2FFD2C8E4C0C0C1D2FFD2C8E48A
:10065000C0C0C1D2FFD2C8E4C0C0C1D2FFD2C8E47A
:10066000C0C0C1D2FFD2C8E4FFFFFFFFFFFFFFB64B
:10067000FFFFFFFFFFB6B6B6FFFFFFFFFFB7BFBF2D
:10068000FFFFFFFFB66EBFBFFFFFFFB6B66FBF76BF
:10069000FFFFB6B6BF6FBF76FFFFB7B6BF6F767707
:1006A000FFFF6EBFBF2676766E6FBFBFBF6F6FBF97
:1006B0006F6FBFBFBF6F6FBF6F6FBFBF76266FBF5C
:1006C0006F27767677276F762627767677272F7FA0
:1006D00027277F7F77272F7F2727367F37272F7F73
:1006E0002727377F2E1F2F7FBFB6B6B6FF6FFFFFBE
:1006F000BFBFB6B6B627FFFFBF6EBFBFBF27FFFFA6
:10070000776FBFBFBF1FB6FF776F77BF771FBFB6CB
:100710002F2777766F1FBFBF2F2777766F1F77BF83
:100720002F1F777F2F1F77BFFFFFFFFFFFD2C9ED7E
:10073000FFFFFFFFEDD2C9EDFFFFFFFFEDCAC9EDDF
:10074000FFFFFFFFEDCAC9EDB6FFFFFFEDCAC9ED20
:10075000B6B6FFFFEDD2C9EDBFB7B6FFEDCAC9ED22
:10076000BF6FB6B6FFD2C8EDE4C9C1C9D2FFFFFF63
:10077000E4C9C0C9C9C9FFFFE4C9C0C1C9C9C9FF2B
:10078000E4C9C0C0C0C9C9D2E4C9C0C0C0C1C9C9D8
:10079000E4C9C0C0C0C0C0C8E4C9C0C0C0C0C0C9EE
:1007A000E4C9C0C0C0C0C0C0FFFFFFFFFFFFFFFF24
:1007B000FFFFFFFFFFFFFFFFFFFFFFFFFFFFFFFF49
:1007C000FFFFFFFFFFFFFFFFEDFFFFFFFFFFFFFF4B
:1007D000D2FFFFFFFFFFFFFFC9EDFFFFFFFFFFFF9E
:1007E000C8DBFFFFFFFFFFFFFFFFFFFFFFFFFFED86
:1007F000FFFFFFFFFFFFFFDBFFFFFFFFFFFFFFD25A
:10080000FFFFFFFFFFFFEDC0FFFFFFFFFFFFEDC09A
:10081000FFFFFFFFFFFFDBC0FFFFFFFFFFFFC9C0C0
:10082000FFFFFFFFFFFFC0C0C0C0C0C0C0C0EDFFE2
:10083000C0C0C0C0C0C0E4FFC0C0C0C0C0C0D2FF04
:10084000C0C0C0C0C0C0C0FFC0C0C0C0C0C0C0ED3C
:10085000C0C0C0C0C0C0C0DBC0C0CAC9C0C0C0D258
:10086000C0C0D2CAC0C0C0C0FFFFFFFFFFFFFFD3A0
:10087000FFFFFFFFFFFFFFD2FFFFFFFFFFFFFFD2E2
:10088000FFFFFFFFFFFFFFD3FFFFFFFFFFFFFFD2D1
:10089000FFFFFFFFFFFFFFD2FFFFFFFFFFFFFFD2C2
:1008A000FFFFFFFFFFFFFFD2C0C0C0C0E4FFFFFF9C
:1008B000C0C0C0C0EDFFFFFFC0C0C0C0EDFFFFFF64
:1008C000C0C0C0C0EDFFFFFFC0C0C0C0EDFFFFFF54
:1008D000C0C0C0C0EDFFFFFFC0C0C0C1EDFFFFFF43
:1008E000C1C1C1C0EDFFFFFFFFFFFFFFFFFFEDC96B
:1008F000FFFFFFFFFFFFE4C9FFFFFFFFFFFFE4C8AB
:10090000FFFFFFFFFFFFEDC9FFFFFFFFFFFFFFCA74
:10091000FFFFFFFFFFFFFFFFFFFFFFFFFFFFFFFFE7
:10092000FFFFFFFFFFFFFFFFC1C1C1C1DBFFFFFFF3
:10093000C0C0C0C0D2FFFFFFC1C1C1C1CAFFFFFF1D
:10094000C1C1C1C1DBFFFFFFC9C9C9C9E4FFFFFFC6
:10095000FFE4EDFFFFFFFFFFFFFFFFFFFFFFFFFFD4
:10096000FFFFFFFFFFFFFFFFFFFFFFFFFFFFFFFF97
:10097000FFFFFFFFFFEDEDEDFFFFFFFFD2C9C9C98C
:10098000FFFFFFE4C9C9C9C8FFFFFFE4C8C8C8C961
:10099000FFFFFFE4C9C9C9C9FFFFFFE4C9C9C9C94D
:1009A000FFFFFFE4C9C9C9C9FFFFFFFFFFFFFFFF4A
:1009B000EDFFFFFFFFFFFFFFD2FFFFFFFFFFFFFF86
:1009C000D2FFFFFFFFFFFFFFD2FFFFFFFFFFFFFF91
:1009D000D2FFFFFFFFFFFFFFDBFFFFFFFFFFFFFF78
:1009E000DBFFFFFFFFFFFFFFFFFFDBC9C0C0C0C091
:1009F000FFFFD2C9C0C0C0C0FFFFD2C1C0C0C0C0CD
:100A0000FFEDC9C0C0C0C0C0FFE4C9C1C0C0C0C004
:100A1000FFE4C9C0C0C0C0C0FFDBC1C0C0C0C0C00F
:100A2000FFDBC1C0C0C0C0C0C0C0C1D2FFD2C8E4DB
:100A3000C0C0C1D2FFD2C8E4C0C0C1D2FFD2C9ED8C
:100A4000C0C0C1D2FFD2C99BC0C0C1D2FFD2C9EDC4
:100A5000C0C0C1D2FFD2C9EDC0C0C1D2FFD2C9ED62
:100A6000C0C0C1D2FFD2C9A4FFB66FBFBF267736C0
:100A7000FFB66F7776277737BFBF277776272E3772
:100A8000BFBF277776272F37BFBF276F7F272F2E30
:100A9000BFBF27277F272F2F6F771F1F7F2727276E
:100AA0007727171F771707271F272F7F2F1F2F7FC6
:100AB0001F272F7F2F1F2F361F272F7F2F1F2F37E7
:100AC0000F272F362F1F2F2F071F27362F172727C8
:100AD000071F17362717271F071F0F2E1F171F1750
:100AE00007170F27170F1717271F377F261F777630
:100AF000271F3736271F2F76271F2F36271F2F76C2
:100B0000271F27361F1F2F361F1F1F37171F273678
:100B10001F171727171F0F360F070F1F0F17072F46
:100B20000707070F0707071F7726B6B6FFD2C8EDDE
:100B30007727BFBFAED2C8ED6F27BFBFAED2C8ED1B
:100B40002727BF77AED2C8ED2727776FAED2C8ED83
:100B50001F276F6FAED2C8ED171F165FA6D2C8ED64
:100B60000F070717A6D2C8EDE4C9C0C0C0C0C0C0F7
:100B7000E4C9C0C0C0C0C0C0E4C9C0C0C0C0C0C01B
:100B8000E4C9C0C0C0C0C0C0E4C9C0C0C0C0C0C00B
:100B9000E4C9C0C0C0C0C0C0E4C9C0C0C0C0C0C0FB
:100BA000E4C9C0C0C0C0C0C0C9D2FFFFFFFFFFFF83
:100BB000C1CAEDFFFFFFFFFFC0C9E4FFFFFFFFFF5A
:100BC000C1C9DBFFFFFFFFFFC0C9DBFFFFFFFFFF66
:100BD000C0C1D2FFFFFFFFFFC0C0D2EDFFFFFFFF8C
:100BE000C0C1D2EDFFFFFFFFFFFFFFFFFFE4C0C06A
:100BF000FFFFFFFFFFD3C0C0FFFFFFFFFFC1C0C06B
:100C0000FFFFFFFFFFC0C0C0FFFFFFFFDBC0C0C092
:100C1000FFFFFFFFD2C0C0C0FFFFFFFFC0C0C0C1C9
:100C2000FFFFFFEDC1C1C1C0C0C1EDD3C0C0C0C096
:100C3000C0C9EDDBC0C0C0C0C0D2FFE4C1C0C0C0ED
:100C4000C0DBFFEDC8C0C0C0C0E4FFFFD2C0C0C061
:100C5000C9EDFFFFD2C1C0C1CAFFFFFFDBC1C1C1E7
:100C6000D2FFFFFFEDC8C0C0EDFFFFFFFFFFFFFF9A
:100C7000DBFFFFFFFFFFFFEDCAFFFFFFFFFFFFDB13
:100C8000C0FFFFFFFFFFFFE4C0E4FFFFFFFFFFED3A
:100C9000C1DBFFFFFFFFFFEDC0C8FFFFFFFFFFED60
:100CA000C0C1FFFFFFFFFFEDFFEDEDFFFFFFFFFF07
:100CB000C0C0C0C0DBFFFFFFC0C0C0C0C1EDFFFFB0
:100CC000C0C0C0C0C1EDFFFFC9C1C1C1C0EDFFFFC1
:100CD000D2C0C0C0C1EDFFFFD2C1C1C1C1EDFFFF95
:100CE000D2C1C1C1C9EDFFFFFFFFFFFFEDEDEDFF79
:100CF000FFFFFFC0C0C0C0C1FFFFFFC1C1C1C1C174
:100D0000FFFFFFC1C0C0C0C0FFFFFFC1C1C1C1C163
:100D1000FFFFFFC1C1C1C1C1FFFFFFC1C1C1C9C93F
:100D2000FFFFFFC9C9C9C9C9FFFFFFFFFFFFFFFFE1
:100D3000E4FFFFFFFFFFFFFFE4FFFFFFFFFFFFC92F
:100D4000E4FFFFFFFFFFD2C1E4FFFFFFFFE4C1C1EB
:100D5000E4FFFFFFFFC9C9C9E4FFFFFFE4C9C9C938
:100D6000E4FFFFFFD2C8C8C9FFFFEDEDEDFFFFDBD9
:100D7000D2C1C0C0C0C0D2D2C0C0C1C1C1C1C1C136
:100D8000C1C1C1C1C1C1C1C1C1C1C1C1C1C9C9C93B
:100D9000C9C9C9D2DBC8C8C8C9C8DBFFFFFFE4C9DD
:100DA000C9C9FFFFFFFFFFDBC0C0C0C0EDFFFFFFF1
:100DB000C1C1C1C1EDFFFFFFC1C1C1C1EDFFFFFF57
:100DC000C1C1C9C9EDFFFFFFC9C9C9C8EDFFFFFF18
:100DD000C8C8C8C9EDFFFFFFC9C9C9C9EDFFFFFFFA
:100DE000C9C9C9C9EDFFFFFFFFFFFFFFFFFFEDE42A
:100DF000FFFFEDD2C1C1C1C1E4C9C9C9C9C9C9C9CF
:100E0000DBC9C9C9C9C8C8C8FFC9C8C9C9C9C9C90E
:100E1000FFC9C9C9C9C9D2DBFFDBC9DBEDFFFFFFD1
:100E2000FFFFFFFFFFFFFFFFE4E4EDFFFFFFFFFF1A
:100E3000C9C9C9C9D2FFFFFFC9C9C9C9C8CAFFFF0B
:100E4000C8C8C9C9C9C9DBFFC9C9C9C9C9C9C9FF96
:100E5000D2C9C9C9C9C9C9E4FFED80C9C9C9C9DBBB
:100E6000FFFFD280808080D2FFFFFFFFFFFFFFFFE8
:100E7000FFFFFFFFFFFFFFE4FFFFFFFFFFFFDBC9F7
:100E8000FFFFFFFFFFE4C9C9FFFFFFFFEDD2C9C9A4
:100E9000FFFFFFFFE480C980FFFFFFFFD28080805B
:100EA000FFFFFFED80808080FFEDD2D2D2E4FFFF14
:100EB000C9C9C9C9C9C9C9D2C9C9C9C9C9C9C9C999
:100EC000C9C9C9C9C9C9C9C9C9C9C9C9C9C9808024
:100ED0008080E4EDED80808080E4FFFFFFED808086
:100EE00080FFFFFFFFFF8080FFFFFFFFFFFFFFFF8F
:100EF000FFFFFFFFFFE4C9C9D2FFFFFFFFDBC9C946
:100F0000C9D2FFFFFFDB80808080E4FFFFDB8080B1
:100F10008080DBFFFFEDD280808089FFFFFFFFE450
:100F2000808081EDFFFFFFEDFFFFFFFFFFFFFFFF71
:100F3000C9C9C9E4FFFFFFFFC9C9C980EDFFFFFFB1
:100F400080808080D2FFFFFF8080808080FFFFFF55
:100F50008080808080FFFFFF8080808080FFFFFF97
:100F60008180808080FFFFFFFFFFFFDB80C9C98099
:100F7000ED80808080808080E480808080808080A0
:100F8000E480808080808080E48080808080808099
:100F9000FFDBE48980808080FFFFFFE48080808029
:100FA000FFFFFFE480808080D2FFFFFFFFFFFFFF95
:100FB0008080808080DBFFDB8080808080D2FFDBD0
:100FC000808080808081FFED8080808080DBFFEDED
:100FD00089E4E4E4E4EDFFFFDBFFFFFFFFFFFFFF39
:100FE000DBFFFFFFFFFFFFFFFFFFFFFFFFFFFFFF35
:100FF00080808080EDFFFFFF80808080E4FFFFFF26
:101000008080808089FFFFFF8080808081EDFFFFEE
:101010008980808080EDFFFFDB80808081E4FFFF9E
:10102000E48180808192FFFFFFFFFFFFFFFFFFFF52
:10103000FFFFFFFFDB808080FFFFFFFF808080805D
:10104000FFFFFFFF80808080FFFFFFE480808080C3
:10105000FFFFFFE480808081FFFFFF898181818124
:10106000FFFFFF8181818189FFFFFFFFFFFFFFFFFE
:1010700080E4FFFFFFFFFFFF89EDFFFFFFFFFFFFA2
:1010800089EDFFFFFFFFFFFF92FFFFFFFFFFFFFF65
:10109000E4FFFFFFFFFFFFFFEDFFFFFFFFFFFFFF8D
:1010A000EDFFFFFFFFFFFFFFFFD2C1C0C0C0C0C008
:1010B000FFD2C0C0C0C0C0C0FFD2C0C0C0C0C0C08E
:1010C000FFD3C0C0C0C0C0C0FFDBC0C0C0C0C0C074
:1010D000FFE4C0C0C0C0C0C0FFE4C0C0C0C0C0C04A
:1010E000FFFFC9C0C0C0C0C0C0C0C1D2FFD2C19440
:1010F000C0C0C1D2FFD2C19DC0C0C1D2FFD2C144C5
:10110000C0C0C1D2FFD2C144C0C0C1D2FFD2C1440D
:10111000C0C0C1D2FFD2C144C0C0C1D2FFD2C144FD
:10112000C0C0C1D2FFD2C19D67270F171F07070F8D
:101130005F0F07170F070707170F070F07070707A7
:10114000170F070707070F070F070F07070F170FDF
:101150000707170F072E1F1F07070F2F072E271F21
:101160001F171777172E2F1F07070F1F0F070F0FB8
:1011700007070F170707070707070F1707070707CF
:101180000F17070F07070707171F070707070707A7
:101190001F27170F0F0F07072F371F171F0F0F17C7
:1011A0002F371F1F2717171F0707070707070707EF
:1011B00007070707070707070707070707070707BF
:1011C0000707070707070707070F07070707071797
:1011D000171F07260717072E1F270F36071F1F3752
:1011E00027271F36171F2F370707070F5581C9ED10
:1011F0000707070F4E81C9ED070707074E81C9EDA5
:10120000070707074E81C9ED07070F074E81C9ED94
:101210001F17160F5681C9ED1F276F1EA6D2C8EDE6
:101220001F27776FAED2C8EDC0C0CAEDFFFFFFFF2A
:10123000C0C0C8EDFFFFFFFFC0C0C9EDFFFFFFFF4B
:10124000C0C0CAEDFFFFFFFFC0C0CAFFFFFFFFFF26
:10125000C0C0D2FFFFFFFFFFC0C0DBFFFFFFFFFFEB
:10126000C0C1E4FFFFFFFFFFFFFFFFDBC0C0C0C83E
:10127000FFFFFFCAC1C1C1C9FFFFFFC1C1C1C1CAD0
:10128000FFFFE4C1C9C9C9D2FFFFDBC9C9C9C8CAC8
:10129000FFFFC8C8C8C8C8C9FFFFC9C9C9C9C9C9EB
:1012A000FFE4C9C9C9C9C9C9E4FFFFFFFFCAC1C179
:1012B000EDFFFFFFFFD2C1C1FFFFFFFFFFDBC9C989
:1012C000FFFFFFFFFFE4C9C8DBD2D2D2DBD2C9C91E
:1012D000C9C9C9C9C9C9C9C9C9C9C9C9C9C9C9C97E
:1012E000C9C9C9C9C9C9C9C9C1C1E4FFFFFFFFED67
:1012F000C1C9DBFFFFFFFFEDC9C9C9FFFFFFFFFF4A
:10130000C8C8C8EDFFFFFFFFC9C9C9E4FFFFFFFF61
:10131000C9C9C9D2FFFFFFFFC9C9C9C9FFFFFFFF84
:10132000C9C9C980EDFFFFFFD2C9C9C9C8EDFFFF18
:10133000D2C8C9C9C9EDFFFFD2C9C8C9C9EDFFFFED
:10134000D2C9C9C9C9EDFFFFD2C9C9C9C9EDFFFFDB
:10135000D2C9C9C980EDFFFFD280C98080EDFFFFEF
:10136000D280808080EDFFFFFFFFFFC8C8C8C8C9DA
:10137000FFFFFFC9C9C9C9C9FFFFFFC9C9C9C9C999
:10138000FFFFFFC9C9C9C9C9FFFFFFC9C9C9C9C989
:10139000FFFFFF8080808080FFFFFF808080808053
:1013A000FFFFFF8080808080E4FFFFFFD2C9C9C9B2
:1013B000E4FFFFEDCAC9C9C9E4FFFFEDC9C9C9C946
:1013C000E4FFFFED80C9C980E4FFFFED80808080ED
:1013D000E4FFFFED80808080E4FFFFED808080806F
:1013E000E4FFFFED81808080C9DBFFFFFFFFFFDBB3
:1013F000C9EDFFFFFFFFFFDBC9FFFFFFFFFFFFDBC3
:1014000080FFFFFFFFFFFFDB80FFFFFFFFFFFFDB32
:1014100080FFFFFFFFFFFFDB80FFFFFFFFFFFFDB22
:1014200080FFFFFFFFFFFFDBC9C9C9C9EDFFFFFF59
:1014300080C9C980EDFFFFFF80808080EDFFFFFF46
:1014400080808080EDFFFFFF80808080EDFFFFFFC8
:1014500080808080EDFFFFFF80808080EDFFFFFFB8
:1014600080808080EDFFFFFFFFFFFFFFFFFFFFFF9A
:10147000FFFFFFFFFFFFFFFFFFFFFFFFFFEDDBDBD6
:10148000FFFFFF8180808080FFED808080808080F2
:10149000FF80808080808080E4808080808081895F
:1014A000818080808092FFFFFFFFE480808080D277
:1014B000FFFFED8080808081DBDB898080808089F8
:1014C000808080808080808980808080808080890A
:1014D00080808080808080898181818080808089F7
:1014E000FFFFED8180808089FFFFFFED808080809D
:1014F000FFFFFFE480808080FFFFFFDB8080808033
:10150000FFFFFFDB80808080FFFFFFDB808080802B
:10151000FFFFFF9280808081FFFFFF9281808181A9
:10152000FFFFFF928181818189FFFFFFFFFFDB8049
:10153000DBFFFFFFFFFFDB80E4FFFFFFFFFF928089
:10154000E4FFFFFFFFFFFFFFE4FFFFFFFFFFFFFFE1
:10155000E4FFFFFFFFFFFFFFE4FFFFFFFFFFFFFFD1
:10156000E4FFFFFFFFFFFFFF808081EDFFFFFFFF34
:10157000808089FFFFFFFFFF8081E4FFFFFFFFFF07
:10158000FFFFFFFFFFFFFFFFFFFFFFFFFFFFFFFF6B
:10159000FFFFFFFFFFFFFFFFFFFFFFFFFFFFFFFF5B
:1015A000FFFFFFFFFFFFFFFF8180808080FFFFFFC5
:1015B0008180808081FFFFFF8880808080FFFFFF27
:1015C0008981818181FFFFFF8981818181FFFFFF07
:1015D0008981818181FFFFFF8981818181FFFFFFF7
:1015E0008981818188FFFFFFFFFFFFE48080808089
:1015F000FFFFFFE481808081FFFFFFE48181818123
:10160000FFFFFFE481818181FFFFFFE48181818110
:10161000FFFFFFE488818181FFFFFFE489818188EA
:10162000FFFFFF9B8888888992FFFFFFFFFFFFFF76
:1016300092FFFFFFFFFFFFFF92FFFFFFFFFFFFFF94
:1016400092FFFFFFFFFFFFFF92FFFFFFFFFFFFFF84
:1016500092FFFFFFFFFFFFFF92FFFFFFFFFFFFFF74
:1016600092FFFFFFFFFFFFFFED8181818189FFFF77
:10167000ED8881818181FFFFFF9281818188EDFF6B
:10168000FFE488818188E4FFFFED8881888892FFEC
:10169000FFED8989888989FFFFFF9288898940FF4A
:1016A000FFFF9240884040EDFFFFFF8181818192E2
:1016B000FFFFE48181818192FFFFE481818188E4E1
:1016C000FFFF9288888889EDFFFF8888888989FFD5
:1016D000FFFF8889898892FFFF9B408840899BFF94
:1016E000FF9B40404040EDFFFFFFFFFFFFFFFFFF7C
:1016F000FFFFFFFFFFFFFFFFFFFFFFFFFFFFFFFFFA
:10170000FFFFFFFFFFFFFFFFFFFFFFFFFF924040D4
:10171000FFFFFFFF92408992FFFFFF924092FFFF81
:10172000FFFFED4092ED9292FFFFFFFFFFFFFFFFF3
:10173000FFFFFFFFFFFFFFFFFFFFFFFFFFFFFFFFB9
:10174000FFFFFFFFFFFFFFFF408992FFFFFFFFFF4B
:1017500092404092FFFFFFFFFFFF40409BFFFFFFD3
:1017600092FFFF4040FFFFFFFFFFCAC0C0C0C0C0E4
:10177000FFFFDBC0C0C0C0C0FFFFEDC0C0C0C0C025
:10178000FFFFFFCAC0C0C0C0FFFFFFE4C0C0C0C0B1
:10179000FFFFFFFFC1C0C0C0FFFFFFFFEDC0C0C023
:1017A000FFFFFFFFFFDBC0C0C0C0C1D2FFD2C19CA2
:1017B000C0C0C1D2FFD2C9EDC0C0C1D2FFD2C9EDF5
:1017C000C0C0C1D2FFD2C9EDC0C0C1D2FFD2C9EDE5
:1017D000C0C0C1D2FFD2C9EDC0C0C1D2FFD2C8E4DF
:1017E000C0C0C1D2FFD2C8E4271E27771F372F1FE2
:1017F000276F267627772E1F6F6E6F772777771FD5
:101800006FB76F766F77761FB7B76EBF6E77762735
:10181000B6B6B7BF7777766FFFB6B6B6BFBFBF773E
:10182000FFFFB6B6B6BFBFBF37372727271F172F13
:1018300036372727261F1F2F7F362F2737271F2EA4
:101840007F7F7727372727777F7677277726277732
:101850007676776F772F2777BFBF7777766F6F763C
:10186000BFBFBFBFBF6F6FBF2F272F36271F777731
:101870002E272F362F1F777737272E362F1F777774
:101880007727777F761F777736277776761F767775
:10189000766F77767627BFBF766F76BFBF6FBFBF95
:1018A000BF77BFBFBF6FBFB61F26BF77AED2C8ED31
:1018B0001F6FBFBFADD2C8ED2777BFBFFFD2C8ED46
:1018C000276EBFB6FFD2C8ED27BFB6B6FFD2C8EDB0
:1018D0006FB6B6FFEDD2C9ED6FB6FFFFEDCAC9ED29
:1018E000B7FFFFFFEDCAC9EDE4C9C0C0C0C0C0C0AA
:1018F000E4C9C0C0C0C0C0C0E4C9C0C0C0C0C0C08E
:10190000E4C9C0C0C0C0C0C0E4C9C0C0C0C0C0C07D
:10191000E4C9C0C0C0C0C0C0E4C9C0C0C0C0C0D35A
:10192000E4C9C0C0C0C0C9FFC0C8EDFFFFFFFFFFD2
:10193000C0D2FFFFFFFFFFFFC0DBFFFFFFFFFFFF86
:10194000C1EDFFFFFFFFFFFFD2FFFFFFFFFFFFFF24
:10195000E4FFFFFFFFFFFFFFFFFFFFFFFFFFFFEDC4
:10196000FFFFFFFFFFFFFFE4FFDBC9C9C9C9C9C90A
:10197000FFC9C9C9C9C98080ED8080808080FFFF10
:10198000E48080808089FFFFD280808080E4FFFF38
:101990008180808080EDFFFF8080808080FFFFFF5E
:1019A00080808080DBFFFFFFC9C9C9C9C9C98080A9
:1019B0008080808080808080FFFFFFFFFFFFFFDB53
:1019C000FFFFFFFFFFFFFFEDFFFFFFFFFFFFFFFF39
:1019D000FFFFFFFFFFFFFFFFFFFFFFFFFFFFFFFF17
:1019E000FFFFFFFFFFFFFFFF80808080E4FFFFFF1E
:1019F0008080808081FFFFFF8080808081FFFFFFEB
:101A00008080808080EDFFFF8080808080E4FFFF09
:101A1000898080808089FFFFDB8080808089FFFF54
:101A2000ED8080808081EDFF8980808080EDFFFFE8
:101A30008980808080EDFFFF8980808080E4FFFFC7
:101A4000898080808080EDFFE4808080808080803D
:101A5000E480808080808080ED89808080808080AC
:101A6000FFE4818181818181FFFFFF808080808010
:101A7000FFFFFF8080808080FFFF898080808080E2
:101A8000E4818080808080808080808080808081F0
:101A9000808080808080808180818192818181812D
:101AA0008181E4FF92818181E4FFFFED808080806D
:101AB000E4FFFFED81808080E4FFFFFF898080806C
:101AC000E4FFFFFF89808080E4FFFFFFE4818181E4
:101AD0008AFFFFFFED89818181EDFFFFFF92818108
:101AE00089EDFFFFFFFF888180FFFFFFFFFFFFDB26
:101AF00080E4FFFFFFFFFF9280DBFFFFFFFFFF8916
:101B00008081FFFFFFFF9281818181EDE4898181E6
:101B100081818181818181818181818181818181B5
:101B200081818181818181E480808080EDFFFFFF60
:101B300080808081EDFFFFFF81808081EDFFFFEDE0
:101B400081818181E4FFFFFF81818181E4FFFFFFCB
:101B50008181818188FFFFFF8181818188EDFFFF85
:101B60009288818889FFFFFF8080808089EDFFFF58
:101B70008180818189FFFFFF818181818AFFFFFF51
:101B80008181818189EDFFFF818181818192FFFFC8
:101B90009281818181818888ED898188888888887F
:101BA000FF89898889898989FFFFED818181818900
:101BB000FFFFED8181818189FFFFED88818181892E
:101BC000FFED898181818189E4888181818181889A
:101BD000888888888888888988888988898989897F
:101BE000894092ED88888889FFFFFFE481818181A7
:101BF000FFFFFFED81818181FFFFFFED8181818109
:101C0000FFFFFFFF92888888FFFFFFFFE488888935
:101C1000EDFFFFFFED89898989FFFFFFFF9B4040B2
:101C20009BFFFFFFFFFF924092FFFFFFFFFFFFFFC1
:101C300089FFFFFFFFFFFFFF89FFFFFFFFFFFFFFA0
:101C40008992FFFFFFFFFF9B898892EDEDED9240A7
:101C5000888888888840404040404040404040401C
:101C60004040404040404040FFFFFFFFFFFFFFFF7C
:101C7000FFFFFFFFFFFFFFFFFFFFFFFFFFFFFFFF74
:101C80008992FFFFFFFFFFFF8889EDFFFFFFFFFF46
:101C9000404092FFFFFFFFFF404092FFFFFFFFFF2A
:101CA0004092FFFFFFFFFFFF8988888888FFFFFFC2
:101CB0008988888888FFFFFF8989898988FFFFFFD5
:101CC0008940884089FFFFFF8940404040FFFFFF77
:101CD0004040404040FFFFFF4040404040FFFFFF8A
:101CE0004040404040FFFFFFFFFFFF9B4089898845
:101CF000FFFFFF9B40888840FFFFFF9B4040404024
:101D0000FFFFFF9B40404040FFFFFF9B40404040A3
:101D1000FFFFFFED40404040FFFFFFED924040409D
:101D2000FFFFFFFF9B40404092FFFFFFFFFFFFFFD1
:101D300092FFFFFFFFFFFFFF92FFFFFFFFFFFFFF8D
:101D400040FFFFFFFFFFFFFF4092EDEDEDFFFFFFC4
:101D50004040404040FFFFFF4040404040EDFFFF1B
:101D60004040404040EDFFFFFFFF9B404040409B14
:101D7000FFFFED404040409BFFFFED924040404060
:101D8000FFFFFF9240404040FFFFFF9B404040402C
:101D9000FFFFFFED40404040FFFFFFED414040406E
:101DA000FFFFFFFF49404040FF9240404040EDFFB1
:101DB000FF4040404092FFFFFF4040404092FFFF05
:101DC0009B404040409BFFFF9B40404040EDFFFF59
:101DD0004040404040FFFFFF4040404049FFFFFF80
:101DE000404040409BFFFFFFFFFF9B40EDED4092D6
:101DF000FFFF9B40FFED40FFFFFF9292FFED404051
:101E0000FFFF9292FFED4040FFFF9B40FFED40FF40
:101E1000FFFF9B49EDED40FFFFFFED4940FFFFFF56
:101E2000FFFFFF9B4040EDFF4040FF9B40EDFFFF69
:101E30009B40FFFF409BFFFF4040FFFF4092FFFFA2
:101E4000409BFFFF4992FFFF4040FFED409BFFFF9B
:101E50009B409B9B40EDFFFFFFFFED4949FFFFFFCC
:101E6000FFA44840EDFFFFFFFFFFFFFFFFFFD2C0D1
:101E7000FFFFFFFFFFFFFFE4FFFFFFFFFFFFFFFF8D
:101E8000FFFFFFFFFFFFFFFFFFFFFFFFFFFFFFFF62
:101E9000FFFFFFFFFFFFFFFFFFFFFFFFFFFFFFFF52
:101EA000FFFFFFFFFFFFFFFFC0C0C0D2FFD2C8E4AB
:101EB000C0C0C0D2FFD2C9E4EDDBC0C9FFD2DBFF96
:101EC000FFFFFFFFFFFFFFFFFFFFFFFFFFFFFFFF22
:101ED000FFFFFFFFFFFFFFFFFFFFFFFFFFFFFFFF12
:101EE000FFFFFFFFFFFFFFFFFFFFFFB6B6B6B6B66F
:101EF000FFFFFFFFFFB6B6B6FFFFFFFFFFFFFFFFCD
:101F0000FFFFFFFFFFFFFFFFFFFFFFFFFFFFFFFFE1
:101F1000FFFFFFFFFFFFFFFFFFFFFFFFFFFFFFFFD1
:101F2000FFFFFFFFFFFFFFFFBFBFBFBFBF6E6EBF63
:101F3000B6B6B6B6B6B7B7B6FFFFFFB6B6B6B6B664
:101F4000FFFFFFFFFFFFFFFFFFFFFFFFFFFFFFFFA1
:101F5000FFFFFFFFFFFFFFFFFFFFFFFFFFFFFFFF91
:101F6000FFFFFFFFFFFFFFFFBFBFBFBFB6B7B6B6A4
:101F7000B6B6B6FFFFB6FFFFB6B6FFFFFFFFFFFF27
:101F8000FFFFFFFFFFFFFFFFFFFFFFFFFFFFFFFF61
:101F9000FFFFFFFFFFFFFFFFFFFFFFFFFFFFFFFF51
:101FA000FFFFFFFFFFFFFFFFFFFFFFFFEDCAC9EDD0
:101FB000FFFFFFFFFFD2C9EDFFFFFFFFFFEDC9ED00
:101FC000FFFFFFFFFFFFFFFFFFFFFFFFFFFFFFFF21
:101FD000FFFFFFFFFFFFFFFFFFFFFFFFFFFFFFFF11
:101FE000FFFFFFFFFFFFFFFFE4C8C0C0C0C0FFFF4F
:101FF000E4C0C0C0C0FFFFFFE4C0CAE4FFFFFFFFB2
:10200000FFFFFFFFFFFFFFFFFFFFFFFFFFFFFFFFE0
:10201000FFFFFFFFFFFFFFFFFFFFFFFFFFFFFFFFD0
:10202000FFFFFFFFFFFFFFFFFFFFFFFFFFFFFF8936
:10203000FFFFFFFFFFFFFFFFFFFFFFFFFFFFFFFFB0
:10204000FFFFFFFFFFFFFFFFFFFFFFFFFFFFFFFFA0
:10205000FFFFFFFFFFFFFFFFFFFFFFFFFFFFFFFF90
:10206000FFFFFFFFFFFFFFFF80808080E4FFFFFF97
:10207000EDEDEDEDFFFFFFFFFFFFFFFFFFFFFFFFB8
:10208000FFFFFFFFFFFFFFFFFFFFFFFFFFFFFFFF60
:10209000FFFFFFFFFFFFFFFFFFFFFFFFFFFFFFFF50
:1020A000FFFFFFFFFFFFFFFFFF898181818192FF1B
:1020B000FFFFED92E4FFFFFFFFFFFFFFFFFFFFFFCA
:1020C000FFFFFFFFFFFFFFFFFFFFFFFFFFFFFFFF20
:1020D000FFFFFFFFFFFFFFFFFFFFFFFFFFFFFFFF10
:1020E000FFFFFFFFFFFFFFFFFFFF928181818181E3
:1020F000FFFFFFFFE492E4EDFFFFFFFFFFFFFFFFA5
:10210000FFFFFFFFFFFFFFFFFFFFFFFFFFFFFFFFDF
:10211000FFFFFFFFFFFFFFFFFFFFFFFFFFFFFFFFCF
:10212000FFFFFFFFFFFFFFFF81EDFFFFFF898181C1
:10213000FFFFFFFFFFFFEDEDFFFFFFFFFFFFFFFFD3
:10214000FFFFFFFFFFFFFFFFFFFFFFFFFFFFFFFF9F
:10215000FFFFFFFFFFFFFFFFFFFFFFFFFFFFFFFF8F
:10216000FFFFFFFFFFFFFFFFE4FFFFFFFFFFED8922
:10217000FFFFFFFFFFFFFFFFFFFFFFFFFFFFFFFF6F
:10218000FFFFFFFFFFFFFFFFFFFFFFFFFFFFFFFF5F
:10219000FFFFFFFFFFFFFFFFFFFFFFFFFFFFFFFF4F
:1021A000FFFFFFFFFFFFFFFF818181818888E4FF40
:1021B0009B40888992FFFFFFFFFFFFFFFFFFFFFFAC
:1021C000FFFFFFFFFFFFFFFFFFFFFFFFFFFFFFFF1F
:1021D000FFFFFFFFFFFFFFFFFFFFFFFFFFFFFFFF0F
:1021E000FFFFFFFFFFFFFFFFFF9289889BFFFFFFBD
:1021F000FFFFED9BFFFFFFFFFFFFFFFFFFFFFFFF65
:10220000FFFFFFFFFFFFFFFFFFFFFFFFFFFFFFFFDE
:10221000FFFFFFFFFFFFFFFFFFFFFFFFFFFFFFFFCE
:10222000FFFFFFFFFFFFFFFFFFFF89888888888887
:10223000FFFFFFED8940899BFFFFFFFFFFFFFFFFCF
:10224000FFFFFFFFFFFFFFFFFFFFFFFFFFFFFFFF9E
:10225000FFFFFFFFFFFFFFFFFFFFFFFFFFFFFFFF8E
:10226000FFFFFFFFFFFFFFFF4092FFFF9B89404002
:10227000FFFFFFFFFFFFFFEDFFFFFFFFFFFFFFFF80
:10228000FFFFFFFFFFFFFFFFFFFFFFFFFFFFFFFF5E
:10229000FFFFFFFFFFFFFFFFFFFFFFFFFFFFFFFF4E
:1022A000FFFFFFFFFFFFFFFFFFFFFFFFFFFFFF92AB
:1022B000FFFFFFFFFFFFFFFFFFFFFFFFFFFFFFFF2E
:1022C000FFFFFFFFFFFFFFFFFFFFFFFFFFFFFFFF1E
:1022D000FFFFFFFFFFFFFFFFFFFFFFFFFFFFFFFF0E
:1022E000FFFFFFFFFFFFFFFF4040404040404040F6
:1022F000FF9240404040EDFFFFFFFFFFFFFFFFFF69
:10230000FFFFFFFFFFFFFFFFFFFFFFFFFFFFFFFFDD
:10231000FFFFFFFFFFFFFFFFFFFFFFFFFFFFFFFFCD
:10232000FFFFFFFFFFFFFFFF9BFFFFFFFFFFFFFF21
:10233000FFFFFFFFFFFFFFFFFFFFFFFFFFFFFFFFAD
:10234000FFFFFFFFFFFFFFFFFFFFFFFFFFFFFFFF9D
:10235000FFFFFFFFFFFFFFFFFFFFFFFFFFFFFFFF8D
:10236000FFFFFFFFFFFFFFFF4040404040FFFFFF38
:10237000FFFFEDFFFFFFFFFFFFFFFFFFFFFFFFFF7F
:10238000FFFFFFFFFFFFFFFFFFFFFFFFFFFFFFFF5D
:10239000FFFFFFFFFFFFFFFFFFFFFFFFFFFFFFFF4D
:1023A000FFFFFFFFFFFFFFFFFFFFFFFFFF92404028
:1023B000FFFFFFFFFFFFFFFFFFFFFFFFFFFFFFFF2D
:1023C000FFFFFFFFFFFFFFFFFFFFFFFFFFFFFFFF1D
:1023D000FFFFFFFFFFFFFFFFFFFFFFFFFFFFFFFF0D
:1023E000FFFFFFFFFFFFFFFF4040404040EDFFFFCA
:1023F000FFFFFFFFFFFFFFFFFFFFFFFFFFFFFFFFED
:10240000FFFFFFFFFFFFFFFFFFFFFFFFFFFFFFFFDC
:10241000FFFFFFFFFFFFFFFFFFFFFFFFFFFFFFFFCC
:10242000FFFFFFFFFFFFFF9BFFFFFFFFED4140406E
:10243000FFFFFFFFFFFFFF49FFFFFFFFFFFFFF4918
:10244000FFFFFFFFFFFFFF49FFFFFFFFFFFF9B496C
:10245000FFFFFFFFFFFF49489BFFFFFFA4494848DC
:10246000004848484848484840404040A4FFFFFFD3
:1024700040404040FFFFFFFF49494849FFFFFFFF41
:102480004949499BFFFFFFFF484848A4FFFFFFFF62
:10249000494949FFFFFFFFFF48489BFFFFFFFFFF40
:1024A0004800FFFFFFFFFFFFFFFFFFFF9B48494979
:1024B000FFFFFFFFFFFF4948FFFFFFFFFFFFFFFF99
:1024C000FFFFFFFFFFFFFFFFFFFFFFFFFFFFFFFF1C
:1024D000FFFFFFFFFFFFFFFFFFFFFFFFFFFFFFFF0C
:1024E000FFFFFFFFFFFFFFFF494949A4FFFFFFFF79
:1024F0004849FFFFFFFFFFFFFFFFFFFFFFFFFFFF59
:10250000FFFFFFFFFFFFFFFFFFFFFFFFFFFFFFFFDB
:10251000FFFFFFFFFFFFFFFFFFFFFFFFFFFFFFFFCB
:10252000FFFFFFFFFFFFFFFFFFFFFFFFFFFFFF4971
:10253000FFFFFFFFFFFFFF00FFFFFFFFFFFFFF00A9
:10254000FFFFFFFFFFFFFFFFFFFFFFFFFFFFFFFF9B
:10255000FFFFFFFFFFFFFFFFFFFFFFFFFFFFFFFF8B
:10256000FFFFFFFFFFFFFFFF00484848000000009B
:102570000000000000000000000000000000005209
:10258000A449000000A4FFFFFFFFFFFFFFFFFFFFC4
:10259000FFFFFFFFFFFFFFFFFFFFFFFFFFFFFFFF4B
:1025A000FFFFFFFFFFFFFFFF00A4FFFFFFFFFFFF95
:1025B00052FFFFFFFFFFFFFFFFFFFFFFFFFFFFFFD8
:1025C000FFFFFFFFFFFFFFFFFFFFFFFFFFFFFFFF1B
:1025D000FFFFFFFFFFFFFFFFFFFFFFFFFFFFFFFF0B
:1025E000FFFFFFFFFFFFFFFF1E1C000000000000B9
:1025F00000000000000000000000000000000000DB
:1026000000000000000000000000000000000000CA
:1026100000000000000000000000000000000000BA
:1026200000000000000000000000000000000000AA
:10263000000000000000000000000000000000009A
:10264000000000000000000000000000000000008A
:10265000000000000000000000000000000000007A
:10266000000000000000000000000000000000006A
:10267000000000000000000000000000000000005A
:10268000000000000000000000000000000000004A
:10269000000000000000000000000000000000003A
:1026A000000000000000000000000000000000002A
:1026B000000000000000000000000000000000001A
:1026C000000000000000000000000000000000000A
:1026D00000000000000000000000000000000000FA
:1026E00000000000000000000000000000000000EA
:1026F00000000000000000000000000000000000DA
:1027000000000000000000000000000000000000C9
:1027100000000000000000000102030405000000AA
:1027200000000000000000000000000000000000A9
:10273000000000000000060700000809000000007B
:102740000000000000000000000000000000000089
:10275000000000000A000B0C0D0E00000F0000002E
:102760000010110000000012130000000000000023
:10277000001415161718191A1B1C1D000000001E46
:102780001F00000000202122230000000000002480
:1027900025262728292A2B2C2D2E2F303132333471
:1027A00035363738393A3B3C3D3E0000003F40412A
:1027B0004243442A45464748494A4B4C4D4E4F50A8
:1027C00051525354555657585900005A5B5C5D5E40
:1027D0005F606162636465666768696A6B6C6D6E91
:1027E0006F7071727374750000767778797A7B7C7C
:1027F0007D7E007F808182838485868788898A8B1D
:102800008C8D8E8F90000000000000000000000002
:102810000000000000000000000000000000919295
:102820009300000000000000000000000000000015
:102830000000000000000000000000000000000098
:102840000000000000000000000000000000000088
:102850000000000000000000000000000000000078
:102860000000000000000000000000000000000068
:102870000000000000000000000000000000000058
:102880000000000000000000000000000000000048
:102890000000000000000000000000000000000038
:1028A0000000000000000000000000000000000028
:1028B0000000000000000000000000000000000018
:1028C0000000000000000000000000000000000008
:1028D00000000000000000000000000000000000F8
:1028E00000000000000000000000000000000000E8
:1028F00000000000000000000000000000000000D8
:1029000000000000000000000000000000000000C7
:1029100000000000000000000000000000000000B7
:1029200000000000000000000000000000000000A7
:10293000000000FF06015300C00000B007640090D3
:10294000486400C10100B107640091606400B307EE
:1029500064009303640A916000009160640B9160CD
:1029600000009160640B9048000090486400916002
:1029700000009160640A916000009160640B9160B6
:1029800000009160640B90480000904F64009160DB
:102990000000916764009304640A916700009167E6
:1029A000640B916700009167640B904F0000904F9B
:1029B0006400916700009167640A91670000916765
:1029C000640B916700009167640B904F0000905179
:1029D000640091670000916964009303640A91693F
:1029E00000009169640B916900009169640B90513A
:1029F000000090516400916900009169640A916936
:102A000000009169640B916900009169640B905119
:102A10000000904F64009169000091676400930486
:102A200064209167000091676420904F0000904DF2
:102A3000640091670000916564009303640A9165E6
:102A400000009165640B916500009165640B904DE9
:102A50000000904D6400916500009165640A9165E5
:102A600000009165640B916500009165640B904DC9
:102A70000000904C64009165000091646400930430
:102A8000640A916400009164640B91640000916495
:102A9000640B904C0000904C6400916400009164C1
:102AA000640A916400009164640B91640000916475
:102AB000640B904C0000904A6400916400009162A5
:102AC00064009303640A916200009162640B916256
:102AD00000009162640B904A0000904A6400916289
:102AE00000009162640A916200009162640B91623D
:102AF00000009162640B904A00009048640091626B
:102B00000000916064009304642091600000916073
:102B1000642090480000904F64009160000091672D
:102B200064009303640A916700009167640B9167E6
:102B300000009167640B904F0000904F6400916714
:102B400000009167640A916700009167640B9167C8
:102B500000009167640B904F0000904D64009167F6
:102B60000000916564009304640A9165000091651A
:102B7000640B916500009165640B904D0000904DD1
:102B80006400916500009165640A9165000091659B
:102B9000640B916500009165640B904D0000904CB2
:102BA000640091650000916464009303640A916479
:102BB00000009164640B916400009164640B904C7C
:102BC0000000904C6400916400009164640A916478
:102BD00000009164640B916400009164640B904C5C
:102BE0000000904A640091640000916264009304C4
:102BF00064209162000091626420904A0000904F2E
:102C0000640091620000916764009303640A916715
:102C100000009167640B916700009167640B904F0F
:102C20000000904F6400916700009167640A91670B
:102C300000009167640B916700009167640B904FEF
:102C40000000904D6400916700009165640093045A
:102C5000640A916500009165640B916500009165BF
:102C6000640B904D0000904D6400916500009165EB
:102C7000640A916500009165640B9165000091659F
:102C8000640B904D0000904C6400916500009164CD
:102C900064009303640A916400009164640B91647E
:102CA00000009164640B904C0000904C64009164AF
:102CB00000009164640A916400009164640B916463
:102CC00000009164640B904C0000904A6400916491
:102CD000000091626400930464209162000091629C
:102CE0006420904A00009048640091620000916066
:102CF00064009303640A916000009160640B91602A
:102D000000009160640B904800009048640091605E
:102D100000009160640A916000009160640B916012
:102D200000009160640B90480000904F6400916037
:102D30000000916764009304640A91670000916742
:102D4000640B916700009167640B904F0000904FF7
:102D50006400916700009167640A916700009167C1
:102D6000640B916700009167640B904F00009051D5
:102D7000640091670000916964009303640A91699B
:102D800000009169640B916900009169640B905196
:102D9000000090516400916900009169640A916992
:102DA00000009169640B916900009169640B905176
:102DB0000000904F640091690000916764009304E3
:102DC00064209167000091676420904F0000904D4F
:102DD000640091670000916564009303640A916543
:102DE00000009165640B916500009165640B904D46
:102DF0000000904D6400916500009165640A916542
:102E000000009165640B916500009165640B904D25
:102E10000000904C6400916500009164640093048C
:102E2000640A916400009164640B916400009164F1
:102E3000640B904C0000904C64009164000091641D
:102E4000640A916400009164640B916400009164D1
:102E5000640B904C0000904A640091640000916201
:102E600064009303640A916200009162640B9162B2
:102E700000009162640B904A0000904A64009162E5
:102E800000009162640A916200009162640B916299
:102E900000009162640B904A0000904864009162C7
:102EA00000009160640093046420916000009160D0
:102EB00064209048000091600000930364409304F4
:102EC00064409303644093046440FF06014500FF9F
:102ED0002F00000000522F00000000000000442FCF
:102EE000000000000000003C2F0000000001000076
:102EF000282F00000000010000112F000000000238
:102F0000385B00006F14701402602F0000D62BD7BE
:102F10002B0001020007220000FF01010101010254
:102F20000201010500FE40FF00011200072E000013
:102F3000FC0101170101120100F400FF0002090069
:102F400000F100FF00020900071E0000F10400F973
:102F500000FF00020800070A0100140500F700FF47
:102F60000000FFFFFFFFFFFFFFFFFFFFFFFFFFFF6F
:102F7000FFFFFFFFFFFFFFFFFFFFFFFFFFFFFFFF61
:102F8000FFFFFFFFFFFFFFFFFFFFFFFF000000004D
:102F90000000000000000000000000000000000031
:102FA0000000000000000000000000000000000021
:102FB00000000000FFFFFFFFFFFFFFFFFFFFFFFF1D
:102FC000FFFFFFFFFFFFFFFFFFFFFFFFFFFFFFFF11
:102FD000FFFFFFFFFFFFFFFFFFFFFFFFFFFFFFFF01
:102FE000FFFFFFFFFFFFFFFFFFFFFFFFFFFF0000EF
:102FF000FF000000000000000000000000000000D2
:1030000000000000FF00FF000000000000FF00FFC4
:10301000FFFFFF00FFFFFFFFFFFFFFFFFFFFFFFFBF
:10302000FFFFFFFFFFFFFFFFFFFFFFFFFFFFFFFFB0
:10303000FFFFFFFFFFFFFFFFFFFFFFFFFFFFFFFFA0
:10304000FFFFFFFF00FF00FF000000000000000086
:103050000000000000000000000000FF0000000071
:1030600000000000000000FF000000000000000061
:1030700000FF00FF00000000FF00FFFFFF00000056
:10308000000000FF00000000000000000000000041
:10309000000000000000000000000000010000002F
:1030A00000000000FF000000000000000000000021
:1030B0000000000000000000000000000000FF0011
:1030C0000000FF00000000FFFFFF000000FF000005
:1030D0000000FF00FFFFFFFFFFFFFFFF00FFFFFFFC
:1030E000FFFFFFFFFFFFFFFFFFFFFFFFFF0000FFEE
:1030F000FFFFFFFFFFFF00FFFFFFFF00FF00FFFFDD
:10310000FF00FFFFFFFEFFFFFFFFFFFFFFFFFFFFCF
:10311000FFFFFFFF00FFFFFFFF0000FFFFFFFE00BC
:10312000FFFFFFFFFFFEFFFEFFFE00FFFFFFFEFFB2
:10313000FF00FFFFFFFFFFFFFFFFFFFFFFFFFFFF9E
:1031400000FFFF00FF00FFFFFFFFFFFF00FFFFFF8B
:10315000FFFFFFFFFEFFFEFFFFFFFFFEFEFFFEFF84
:1031600000FFFEFFFEFFFFFFFFFFFFFEFFFFFFFE72
:10317000FFFEFFFFFFFFFFFFFEFFFFFFFFFFFFFE62
:10318000FFFFFFFFFFFFFF00FFFFFFFFFFFFFFFF4E
:1031900000FF0000FF00FF00FFFFFFFF00FFFF0038
:1031A00000FF000000FF00FFFFFF00000000000024
:1031B000000000000000000100010001000000000C
:1031C000000000000000000000FF000000010000FF
:1031D000000000000000FF00FF00000000FF00FFF3
:1031E000FF010000FF00000000FF0000FFFFFF00E4
:1031F000FFFF0000FFFFFFFFFF01FF00FFFF0000D8
:103200000000FF00000000FF00FE00FF00FF00FFC5
:10321000FF00FF000000FF000001FF0100000000B0
:1032200000FF0000000000FFFFFF00FF00FF0000A4
:1032300000FFFFFFFFFF00FFFF00FF00FEFFFF009A
:10324000FFFF01FF000000FF02010301FF00FF0478
:103250000303000000000001000303020200020259
:10326000030203FE02000303020300010002010245
:103270000101FF01FF01FFFFFF00FA00FCFEFEFA63
:10328000FDF8FBF9FCFBFCF7FFF904FB0000FA0575
:10329000FC02010201050005000301020301030114
:1032A0000302030103000300030102010101010104
:1032B0000101010100010002000101000001000103
:1032C00001000000000100010000000000000000FB
:1032D00000000000000000FF00FFFF0000FFFFFFF4
:1032E000FFFFFFFFFFFFFFFFFFFFFFFFFEFFFEFFF0
:1032F000FFFEFFFEFFFEFEFEFFFEFEFEFEFEFEFFE9
:10330000FEFEFEFEFEFFFEFEFEFEFEFEFEFEFEFEDC
:10331000FEFEFEFEFEFEFEFEFEFEFEFEFEFEFEFECD
:10332000FEFEFEFEFEFEFEFEFEFEFEFEFEFEFEFEBD
:10333000FEFEFEFEFEFEFEFEFEFEFEFEFEFEFEFEAD
:10334000FEFEFEFFFEFEFEFEFFFEFEFFFEFFFF0096
:10335000FFFEFFFDFE00FEFF02FD01FFFF03000078
:10336000FD01FE000200020101FD01FE0201FF015C
:10337000FF010202FF02FF0204010103010102FE3C
:10338000010205030202020601020500060603030C
:1033900002020306060507030404030305040304ED
:1033A00002030105040302040504060702030203E5
:1033B000030405050A060502FEFFFF04090F100AB3
:1033C000FDF4ECE8FD0F26222312F5E1D1DCF21F1B
:1033D00034432917F1D9C5C6E2FF3249512F11D51F
:1033E000C3B7C7ED0D353F402211DEC4BFC5EB0C9E
:1033F00030363A1D0CE6C3C5C3F00B31333213032C
:10340000E9C7CFC9F1092D2A280BFAE6C5CFCEF5B9
:1034100009281F1AFFF5E4C6D5D2FA08231510F7BC
:10342000EFE9CDDEDA010922100CF7F3EFCFE3DD8F
:10343000070E26100CF7F4F2DAECE90E0F250A104D
:10344000FA00F5DBEDE614122E0C0DF4FBF5E2F4B8
:10345000F0181026060DF705F7E4EEEC16142A080E
:1034600009F301F5EAF4F3181121FF07F60801E862
:10347000F5E91510240803F8FD03E6FAEE15101E11
:103480000302FA030BE7F7E710102209FEFDF5131C
:10349000E9F9ED03131412F906F517EEF1EEF4183D
:1034A0000C1EF704F50A06E8F9E50A0A130DFF09F0
:1034B000FA0EE6F2F1F3140211FC05040509F7FC1B
:1034C000F4EFFEF8000E06130908FEF5F3E8F3F535
:1034D000031512110A02FEF0F1EAEA020A161508B3
:1034E000070000F1EEECEB0C0A1714070AF900DAFA
:1034F000E5F2FC260E1B050002FFE7D3F2F3241BC6
:10350000130AF1030006D8E2F0FC2E0F18FDF302B7
:1035100000F8D3F7EE151E0810F0040305DCE5F201
:10352000F9280C18FDFBFEFEEDE0FCF119100B0B69
:10353000FC05FFFBE1F0F4FE170A10080000FEF6A0
:10354000EFF8F2FE09060E0B0305FDFCF1F1F4F7AE
:103550000B0B12100402FEF4E5F3F0FD1A0D18082F
:10356000FB03FAEDE1F2F511210F12FCFBFDF7D29E
:10357000E5FE04360B0CFCF90701D8C7FBFA3C202A
:103580000301E20B06FAC4E3FC1A420302E8F70D5A
:103590000AD3D0FE09410EF8EFEC1F0CFFBAD5118B
:1035A0001F46F0EBE8FC2A0102B2E9231740D5F5EB
:1035B000F40B23FBE3BC1C173005CFF30A3309FBE4
:1035C000C8C3351925F3C911062EF3FFD7D33EFB27
:1035D0001BE8E324061EE6FBCBEF3BF31CD8FC16EE
:1035E000070FEC04C61918FC17D0181608F9F9E0F3
:1035F000D934FC12F0E520FE10F2FE08C6170B05C8
:1036000018D7130112FFF7F7C82515F700D91C0FBB
:10361000FDFEFAF0E329FF09F6E2151307FDFFDFCF
:10362000DD2C0EF9F1D8290B01FCFFE2F629F80098
:10363000EAF8181600F105DFED37F2F7EEEC2C088A
:10364000F9F70DDA0224EEFEEB012009FAFEFEE1A5
:10365000F130F6F1F6F2290AEF0305D51217EF0063
:10366000E90F1A04F507F7D01D19ECFEE80F1F004B
:10367000F20AEDE42AF6FBF6F21E0E03F409CFFD82
:1036800032EB01E7002506FCFDE9E22CFBF6FAEA45
:10369000270A04F6FEDC002BE30AEEFB2804FB07F6
:1036A000D4EA3CE6FCFEEC2D06F509EADA2705EE45
:1036B00004F2141302F900CE092ADD07EF0F1FFBF5
:1036C000FD03E5DE32F3F8FBF72808FAF8F2D62D11
:1036D00003E506ED2E0FF4FAFCD31519E00CE918FA
:1036E00020FDF2FCD10B2CD40AE81625FAF6F8E1FD
:1036F000F632E1FEF30B2402FAF6DCF532E301EADE
:103700000B28FC02F6DEEF32EAFDED052A02FCF79B
:10371000E2EA36E7FAF3002604FEF7E7E133F4F8CD
:10372000EE01250601F2EDE031F7F7F1FB24020589
:10373000F4F4DF1F05F5F9F5180600FAF7EE1004AA
:10374000F9FEFB070002FD01FA0503FC00F80B047B
:1037500004FDF7E9110CF7F9F3190506FAFAD81484
:1037600017F3FAE71F0A08FAFED00C21EF00E31C5A
:103770001206FAFED30228F1FFE217130AF800D866
:10378000F42DF403DF13120FF9FEDDE834F207DC49
:103790000F140D01F4EBD935FA04E6FB1B0A0DF208
:1037A000F6CB2610FBFAE21D0C15F2FBD7FB29F134
:1037B00009E306131501EFF7D82008FEFFEC0E12FF
:1037C00011F0FDEEE7160108FCF0131004F305E715
:1037D000E90F0411F4FE120403FF07DBE811090DE1
:1037E000FB0105030C02FDDFE411081007F9000AD4
:1037F0000CFEFADFEE060C1205FB050A03FEF9ECDF
:10380000E805080A07030603FFFD00EDF407FDF9CC
:1038100006040604FA03FCFB05FFF7F8FDFF01FCB4
:103820000002FF0603FAFBFC00FFF900F6FC0706A6
:1038300000FFFFF804FB03FCF20402000104FBFD9F
:10384000FF0102F4FF01FD010102FCF90203FAFF8E
:10385000FFFD00010004F8FA04F700FFFF0001007B
:103860000400F402F8FC02FB0105FF0205F8FDF874
:10387000F800FDFF0402000600FDF8F6FCFC000263
:103880000401040202FDF4FCF8FF03020203020536
:1038900003F5FCFBF902030003010204FBFCFEFA42
:1038A000FB04010100FF02FCFEFFFEFBFD04010121
:1038B000FE00FDFA0200FDFDFE04020001FAFBFE1F
:1038C00003FFFFFC00050007FAFBFC00020001FB00
:1038D00003FF08FFFBFEFC040005FE00FF0603FCDF
:1038E00000FB0202050300FD0605FD04FD010105C4
:1038F0000504FE0409FD0300000005070501010A97
:1039000001020300FF03060602020902030200FE91
:1039100000050501010901030502FDFE020402FF85
:103920000702000404FFFD000301FF0604FE01037B
:103930000000FE0200FD0504FFFF01FE00FF000184
:10394000FC0203000000FDFFFFFF02FA0101FF017E
:1039500001FDFC00FD03FCFF03FD0002FFFC00FD78
:1039600001FFFE03FEFC0100FDFFFEFFFEFE03FF64
:10397000FBFE00FEFEFFFFFDFC0201FDFCFDFEFE66
:103980000000FDFB0102FEFFFDFDFFFD02FEFDFE4E
:103990000403FF00FDFFFF060100FD00060506050C
:1039A00005FC0401000501050403010400030802ED
:1039B00003030201010307020300010105090605D3
:1039C000FE030306070605070C0A100B0A0B080B7B
:1039D000050101030F151F24241C0DEEDFE6ED1871
:1039E000304336371E14EFC4DEE01D33453A23154D
:1039F000070FE9BED3E0193A392F09FEF9FFFCC8D9
:103A0000BEDDEF2E1B1CF1E5DEE4E7D5A3C1CAF74E
:103A100017F7FCC2DECCF1E7DCA1D1C71710FAEC36
:103A2000C0F1DE1BE8E59EE3E2360FF7D9C902FDDF
:103A300027E6EB97F5F84513F0DCDB211729EBF0CF
:103A4000B11A16460BE4E8F9441D1FE6F4CA2B1D13
:103A500030FCDBF50A450D0EDCFAD42D0D17F6DC33
:103A6000060738F602DCFEDC21FF0AFAE10B032A26
:103A7000F1FFE300E420000DF8E9070823F301EB70
:103A800005EA23FE11F3ED080C24F803F10AEA1FFE
:103A9000FB13F9ED050429F90EF40CE60A060D0FE7
:103AA000E406F72A080EFFFFEAF213071EE6FCF50C
:103AB00020160C08F7F4D6190123F9EDFBFC2EFEB5
:103AC0001DF0FDE1E31F0526E5F6EF0A211119E3DC
:103AD000FFCBFA180E28DCFADF0E2C1514D6FAD11B
:103AE00000161818E4F0DD192B1907DDFADBF11FB9
:103AF0000323ECE8EA052F170FE4F1E7E214051FB2
:103B000004E9F2EA281716F6E4FAE1F90C0F1FF5BA
:103B1000EEE9FD1B1911F7EDF7E2F20E0E28EFFAB0
:103B2000D9FC191E1FF2F2E7E1EF101828F8F1D3C3
:103B3000FC141B20F8F7E4EDE412102107EDE9E195
:103B40000A112E0EFAE4EAEDF512031BF8FDE8F374
:103B50000B0727FE07ED01EBE2FCFC260C0EE9EE5D
:103B6000F4FE1E0F21FEF7DED7FCF41E151604F03E
:103B7000F0EB0A0E141400FFEAE1EEE91210201235
:103B800005FFF0F7E9000B1A18FEECDADEF8051D68
:103B90001E1B07F7F3ECFAFF0A0801FBF0F4F40030
:103BA00006060D0C0BFAF7F9030B0C07FDF6F3EC08
:103BB000F0F8030A0209030404060C0C0D00F5EAF0
:103BC000EEF3F8FEFEFDF9FC040C12140C05FD00EA
:103BD00001FDF7F1EEEDF7FBFFFD02FF0A0E1012FB
:103BE0000B05FCFCFBFFFAFAEDEBE7F3FC060B0B15
:103BF0000E050D050D090805FDFBF3EFEDECEFF5E6
:103C0000FC0406060405081012100B02FDF8F4F07F
:103C1000ECEFF5F7FAF7FAF9010E111B150F04FA9C
:103C2000FBFD0101FBF3EFE8ECECF4FC040F1112D7
:103C30000C090606080A0802FAF1EBEBEAF0F7FABB
:103C400000FD00060C0E110F0F0D04FEF7FBFEFA2F
:103C5000F8F1E9EBEBF0F6000A0C100E0D0B07077C
:103C600006090603FDF7EFE9EAECF5F3F5F4FA06C9
:103C70000E1616160F070201030404FFF6EEE6E423
:103C8000E6ECF6F7FE00070F141612100C070300FF
:103C9000FFFEF7F5EFEAE8E5EAEFF9FF07090D1394
:103CA00015150F0C070500FEFAF5F5F0EDECEEEF3B
:103CB000F1F3F802070F0F1411120F0904FCFDF8BD
:103CC000FAF9F9F6F1EDEBF0F5FCFC0205080E0D42
:103CD000110D0B070300FBFCFAFBFBF9F7F4F4F4FE
:103CE000F5F8FCFF0306090A0B0A080505030200A4
:103CF000FDFEFEFBFAF9F7F7F5F9FAFBFDFF02040A
:103D0000070708090908050400FFFDFDFEFEFCF891
:103D1000F6F4F6F7FAFAFCFE0005080D0A090603A8
:103D2000030202FFFDFAFAFAF8F6F5F4F4F6FAFDEA
:103D3000020506080B0B0B090503FFFEFDFCFBFA51
:103D4000F9F7F7F5F6F6FBFB0006070A080A07087D
:103D50000605020001FEFDFBFCF9F9F8F7F7F7FB99
:103D6000FF010406070A0A0A0A080603010100FE09
:103D7000FCFAF7F5F4F4F6F7FCFF0306090C0C0E59
:103D80000D0C08070501FFFCFBF5F2F0EEF2F5FA69
:103D9000FDFF05070C1011110D0C07030100FCF7C6
:103DA000F3EDE9E9EEF3F9FC01050A0D1214131025
:103DB0000E090604FFFAEEEAE2E6EAF0F9F901027A
:103DC0000B0E121413130F0C0903FFF4EBE5DCE5E3
:103DD000E5F3F6FD05070F0E151315140F0D04027C
:103DE000F8EDE7DCE3E4F0F8FD0807111015141313
:103DF000130D0D0204F1EEE2DBE9E4FAF705070C1E
:103E000015101910150D0E0803FAEBE9D9E4E3F2C9
:103E1000FC010D0A18101B12150F0C0C0300E6EB29
:103E2000D2E3E0F2FE03130D1E102110170C0B0558
:103E300001F3E4E2D3E7E4FFFE1010191B1518119B
:103E40000D0B0500F4E5E6D5E8E3FE000F17171F9C
:103E50001417090F0305FCEAE2D9DCE7F3050E1994
:103E60001C1F1C120F0207FCFFEBDFD7D0E3E80892
:103E70001023262821150D0305F901E4E3D3D7E427
:103E8000F10B1126202D171A0508FBFCF5DEE4CBFB
:103E9000E9E00804211B281D160BFE04F405DBF2E3
:103EA000CBEDDE05021A191D1D0D0DF906F105D722
:103EB000F6CDF8E50C07191715150606F600F1FE04
:103EC000DAF3D2F9EB14091F12180C07FCF8F8F317
:103ED000F2DEEADAFAF51A0B230B180305F7FAF506
:103EE000F7E9E7E5E5FAFC150D1D0B140002F7FCF8
:103EF000F8EEE6E5E5F4000D1111100909FDFDF8F5
:103F0000FAFAEBEDE5EEFA03100C12090C0200FED2
:103F1000FBFFEDE8E2E6F7031311130A0502FCFECE
:103F2000FD02FDECEBE2EFFB0A120F0F0306FEFFB2
:103F3000000106F2EFE5ECFA081513110700FEFA8E
:103F4000FF020707F2F5E5F7FC1013140F08040150
:103F5000FD020209F8F3EFEC01061C12170405FC40
:103F600000FE07080DF5F8E7F4FC0C17141505081A
:103F7000FD01FE070706F1F8E600FE17101608041B
:103F800000FF0004090CFFF2EFE700001C0E19000F
:103F900007F6FFF7060611F9F6E8EBFD031B0D190E
:103FA000FC09F203F40B0513F3F4E2EEFD0A1C1115
:103FB00015FB06EE04F5130718F0F4DEEFFA0E1BFE
:103FC0001413FC04EE05F618061AE9F4D9F2FC13F2
:103FD0001D150FF8FDEB03FB1C0B18E3F0D3F6FEE9
:103FE000191E140BF4F6ED02021A0C08DFEAD8FFD2
:103FF0000420160EFEF1F4F306091707F2DDE1E6E0
:104000000911220C04EEF1F5020E1011F2E1DBE5CC
:1040100002161F15FEF1E7FA00151111F4DADAE0C5
:1040200003172616FDEAE3F405181611F0D6D9DFBA
:10403000081C2917F8E6DEF60820180FE9D0D7E1AA
:10404000111F2F10F7DCE0F70E26170DD4D5D1F78E
:10405000192A2A03F0D4EEFC211F1AF1CDD4DD1366
:10406000213611FADBE0F61128170CCED9D0061C48
:104070003122F9E9D1F9032D1714D3D7CFFB1E2A2A
:104080002AF6F0CEFBFF2E1513D6D6D7FB24242715
:10409000F0EDD4FF0A2C1404D0D7E0092C251BE640
:1040A000E3DC08192910E9CFD6F21E2D25FFE0DB4D
:1040B000EE182325F6D9CEE511292C09E8D9E70C0D
:1040C000232702DBCEE0082C2D12E9D7E4092627AE
:1040D00009D7D0D90A2A3013E7DAE00E222701D611
:1040E000D3DE12292B09E2DDEA182221EDD4D5EF27
:1040F000232825F1DFDD0122240DD7D5DB0E292968
:104100000CDEDEE81E231EE9CEDBF32E231EE3DBEE
:10411000E40E2F1C01C3D9E628311EF5CBE4FE3492
:10412000230ECDCDE113391F07CCDFF22C2816DC8E
:10413000C7E203391D10D3DEF2232814E6C8E9FDD7
:1041400036170ED8E3FA1F230AE8CAF80135080328
:10415000D6EC0B241EF9DFCB080F37FAF4CFF51C91
:104160002B19EFD0D40F1D34F0EACC02242B0BE92D
:10417000C6E9152822E4E2D6172C1FFCD8C9061D73
:104180003203DCD9ED2D2A10EAC6E51A2A24E3DA37
:10419000DB13351AFDD0CD0A242FFDD7DBF33323F3
:1041A0000BE3C4F21F2C17DCD9E51F310FF5C8DE75
:1041B000132B22EFD7E009331801D3D004232BFEB1
:1041C000DDDEF62E1C09E5C7FD142E09E5E3ED251D
:1041D0001D09F1CBF6132212E2EBEC221F06F4CA02
:1041E000F5132412E4E4EF1D2608F6C9EF14211993
:1041F000E3E6EC1C240AF9CAF0121F15E7E7EF1CEE
:104200002007F9CAF6131D0FE2EDF0241A04F3C9D2
:1042100001142106E0ECF42C1407E9CB081325FC6B
:10422000E4EBFB2B0A0BE1D60D0F23F0ECEF042996
:10423000FE0BD6E8130F1DE0F6F01522F905CA00B3
:1042400010170ED8FDF02710FFF4CC160921F3E269
:10425000FCFC2FFB09D8E71C081EDBF4F7151FF444
:1042600003CA0E101304D604F92E00FEE2DC240863
:1042700020DCEAF91428F500C10B15190CD4FBF267
:10428000310609DDD71F0628E2F4ED0F1EFF09C332
:104290000F031A07E505EE26F614DBEF17F821DA0F
:1042A00010F11801FDFBDB27EC1DE104080C07ED04
:1042B00000DB2DF40FE6F514130CE5FAD92F0109F4
:1042C000E7EC141712E7F3DA2A0609E6ED111A0DE6
:1042D000EDECE22C000EDDF60E1D07EFE5E92EFEFB
:1042E0000FD7FD0B1E03F5DCF724020BD709051CC5
:1042F000FAFBD60C140703DC110218F6FBD81A03DC
:1043000010F5EE0D030DF9F7E421F216E6080603A9
:1043100002FAF3F61CEF12E4140401FAFDEC0C0CA3
:10432000F706EB190104F1FFE71903FDFEEF1AFF91
:1043300007F0FBE61D0004F7F3180009F1FAE0208E
:10434000FF0BF4F116FF0FF0FCDC1C040BF9F2116B
:10435000FB0DF400E0100607FFFA0BFE06F402E680
:104360000A0803FFFD0CFF05F003ED010FFA05FA43
:104370000D0103F5FAF6F717F704FC060900FEF73E
:10438000F7F40F0203FFFF050300FCF4F701070633
:10439000FFFF02050101F3F7F808060200FF07041A
:1043A00001F5FAF50301040103050701F8FEF80021
:1043B000F902FF07070702F800FB03F5F7F9060EFD
:1043C0000905F9FFFE06FCF6F0F908100EFAFFFCED
:1043D0000503FEF4F4F5051506FFF9040102FEF7E6
:1043E000F7F9FE040B01010000FFFDFEFD02F9F3E9
:1043F000000B0503FFFA00020501FAF4F7000906B5
:10440000FDFFFF0403FFFCFAF8FCFF0202020103B8
:1044100003FEFEFAFFFB00FBFC0201050103FAFDAF
:10442000FB0204FCFCF902FF0500FDFCFE02FE019C
:10443000FDFDFCFF00FDFE0001FEFC00020001FC92
:10444000FDFEFEFFFDFEFF01FD0401FE00FCFDF789
:10445000FCFF01FFFFFFFF06FFFEF7F7FFFC01FE79
:10446000FF000102FFFDF600F9FEFDFE030202FB64
:10447000FEF902FAFDFBFC000201FDFCFB01FC0061
:10448000F9FEFE0000FEFBFCFFFC03FB00FC00FE4F
:10449000FFFEFDFDFA02FE04FB00FEFFFFFDFCFB3C
:1044A00000FD04FC01FDFF01FEFDFBFE0003FD011C
:1044B000FE000100FEFDFDFF020000FEFF0000FF08
:1044C00000FEFF000000FF00FF00FF00FF000000F3
:1044D000FFFF000000FF00FF00FF00FF00000000E2
:1044E00000FF00000000000000FFFF00FF00FFFFD2
:1044F000000000000000000000000000FF000000BD
:1045000000FF000000000000000000FF00000000AD
:10451000FFFFFFFFFF00000000FFFFFFFFFFFFFFA7
:10452000FFFFFFFF00FFFFFFFFFFFF00FFFFFFFF99
:10453000FFFFFFFFFFFFFFFFFFFFFF00FFFFFFFF8A
:10454000FFFFFFFFFFFFFFFFFFFFFFFFFFFFFFFF7B
:10455000FFFFFFFFFFFFFF00FFFFFFFFFFFFFF0069
:10456000FFFFFFFFFFFF00FFFFFF00FF0000000055
:10457000FFFF0000FF00FFFFFFFFFF00FF0000FF45
:1045800000FF00FFFFFF0000000000FF00FF000031
:10459000FF0000FF0000000000000000000000001D
:1045A000000000000000000000000000000000000B
:1045B00000000000000000000000000000000000FB
:1045C00000000000000000000000000000000000EB
:1045D00000000000000000000000FF00000000FFDD
:1045E00000000000000000000000000000000000CB
:1045F00000000000000000000000000000000000BB
:104600000000000100000000000001FF00000000A9
:10461000FF00000000010001000000000000000099
:104620000000000000FF0000FFFF0000000001008C
:1046300000000001FF000100FF0100000000010177
:10464000FF000000FF000000000002000000000169
:10465000FF00000100FF0001000000000000FF015A
:104660000000000100FF000001FF00010000000148
:104670000000FF010000000100FF000000FF00FF3C
:104680000100FF010001000100FF01FF0101000125
:1046900000000000FF0001010100FFFF00FF00001B
:1046A0000001FF0000FF0001FFFFFFFF01FDFF0011
:1046B000FFFEFFFFFF00FF00FFFEFFFFFF0000FF08
:1046C00001FEFE00FEFFFDFFFE00FEFE00FEFDFF00
:1046D00000FEFFFEFFFFFEFFFFFFFFFEFEFEFEFFF0
:1046E0000100FEFFFDFFFFFFFEFF00FE01FE01FDDA
:1046F00001FFFF00FD01FD02FEFF00FFFEFF0000C5
:1047000001FD02FFFD01FF00FF0101FF000001FFAD
:1047100001FE0102FFFFFFFE0105010200FAF8FBA6
:10472000030B0700FDF4F5FD1211FEFDF2F6FD0688
:104730001806F9F4F1FB05210FF5F0E7FB0C260F45
:10474000EDEEE7FB132312EFE7EAFA152A0FEBEA87
:10475000EAFD1A2503F2F1E8FE1C10FC07F2E5055C
:104760000D041A08DDEC0007221AE4DEF40323240A
:10477000EEDCEAFC2527F7DEE2F6272BF8E1DEF196
:10478000282FFDE1D9EF272E03E3D3ED232C09E7F2
:10479000D1E8222A0AECD1E61F270AEBD2EA1E252D
:1047A00009E9D3EF212307E4D3F4242502DED4F969
:1047B0002826FCD9D3FE2E23F5D5D306321BEFD302
:1047C000D911310FE9D3E11F2C02E6D3F22B1EFAE7
:1047D000E4D7042B0EF6E3E4171D01F6E7F91A09F6
:1047E000F8F8F5080EFAF805FC0609EF0109F70ECE
:1047F00006E90406FB1602E60104041EFEDEFE06C0
:104800000B20FADBFD060F22F3DBFF061522E9DDA4
:1048100002061C1BDFE206082210D7E9090E23045A
:10482000D2EE0E1322F9CEF6121720EDCDFE151A98
:104830001CE2D006161D14D8D60C181D0BD1DE13A1
:10484000181C02CDE716181DF8CAEF161A1DEFCA7C
:10485000F7181D1BE7CCFD171E19DFCF0017211518
:10486000D9D30419240FD5D7071B240ACFDB0D1D7C
:104870002503CBE0101F25FCC8E5122224F5C8E86B
:10488000152423EFC7EC172722E7C5F11A2A1EE0EB
:10489000C6F61C2C1AD9C9FA1F2D14D6CCFE212C11
:1048A00010D4CF01222B0DD0D304222D07CCD70654
:1048B000252DFDCBDB0A2B28F3CCE0122E1DEECFED
:1048C000E7172B17EECEEA1A2C17EACEE8202A16A5
:1048D000EFC9E91C241AEECCEF142119EAD4F21422
:1048E0002312E6D5F519230EE0D4FC1E250CD7D3F0
:1048F00001212805D4D6062523FFD5DC0C2119FD7E
:10490000D5EA101A15F4DAF3101812F0E0F81116BF
:1049100008F2E7FB120D03F4ED031108FAF1F306B8
:104920001506F6EDF50B1606F0EEF50D1705F0ED94
:10493000F70C1605F3ECFA0B1308F0EEFA0A14065E
:10494000F1EBFB0C1208F1EAFC0D1208EFEBFC0E88
:104950001107F3EBFB0D0F06F5ECFA0D0D05F7EC67
:10496000FD0A0D04F8F1F90D0B01FCEFFA0C0A0336
:10497000FBF2F6090D03FEF3F2090C05FFF5F10554
:104980000D0800F7EE000D0B02F9EFF7100C04FB19
:10499000EDF3100F08FAEDED0C1509FDECE9051922
:1049A0000E01EDE6FA1C1403F1E3F0191B08F6E220
:1049B000E80E220DFBE5E4002315FEEDE2F5191CDF
:1049C00004F4E7EC0A1F0CFBEEE8FB181400F6EC0D
:1049D000EF0B1807FBF4EBFC130FFFFCF0EF0912D1
:1049E00006FFF9ECFD0D0C0100F3F0050C070200C9
:1049F000ECF9060C0306F7F1FE050A0207F1F7FDD4
:104A000008050801F1F9FE08020DF9F5F70205089D
:104A10000BF3F7F706040F01F3F4F9090910F7F5A2
:104A2000F0010B0D09F1F4F10B0A0D01F4F1F50F92
:104A3000080EFCF3F0FE0E070DF6F4F0060B090964
:104A4000F0F6F30C090AFFF0F9FA0F0508F6F6F98B
:104A5000010C0205F4FEF90508FF01F601FB06044E
:104A6000FEFFF901FB0B01FFFCF800000DFE00F555
:104A7000FCFE070CFBFCF201030D04F8F5F7060839
:104A80000DFBF6F5FD080807F9F9FA01040201FD2E
:104A9000FF00FEFF020304FCF9F804060800F8F426
:104AA000FB09090BF7F5F2030E0B04EFF3F40F10FB
:104AB00007FDECF4FC120D07F1F2FA041304FFEB0E
:104AC000F9000F0FFFF4EDFD041407FEE9F5090BE3
:104AD00015F8F3E9FD110F10F3EAF001110D06F6D8
:104AE000E2F60A1822FFE5E6E309251611E3DFF5F1
:104AF000FF2410F6F5DDFD181215F1E7F1F4181991
:104B00000B06D9E603052510EBF2DFF81F110FF5B0
:104B1000E0FA011717FAF6DDEE0B18270FDDE5E5D1
:104B2000EF25131308F4DFE408012213FB02F7E476
:104B3000F200011F1208F3F4D8FB170127F8F3085D
:104B4000E8ED1BF30010F216FDF9F8F9F60009057F
:104B500005070AEC0EDEEC19F72807E40AFBDF1262
:104B6000FC050FEC0FFB17EBDB14EC2615DB12FD3D
:104B7000F0F2FC0C110DE8FF0902EBFE06FE16EA4E
:104B8000001204EAE80D011506E40A0CF5EFF90934
:104B90000919EFF312FCF0F803F51508FD0FF9E819
:104BA000EA0E010316F70B07EBECFD06F4200801F3
:104BB0000FE4F4F801EF11200010E6E7FC0AEE0024
:104BC00027FD18F4DCFF01F0F12F110FFDCEF80DD9
:104BD000F7E8241C0A08CAEE1803E409210A17DAC8
:104BE000DB1605E7F7271614E7CA0A16F5E51B1EBC
:104BF00011FAC7F71D04DD0724110DCEE4150FECE3
:104C0000F3231012E3D30C14F3EC1C1315F5CB02B1
:104C100011FFEE09181405D4EF0E01F00519120D5D
:104C2000DBE30F0AF7F0121B14F0D3FE0DFFF508BB
:104C3000151A03CEED0D0402FD081E12DCDF010380
:104C40000902FD111EEFD8FCFE090EF3042009DD58
:104C5000EDFFF61304F51A1AE8E3FDF00A17F1095F
:104C600022F9E3F6F2FE2100EC1814ECEEFCEE0A59
:104C70001AF3001BFDE701F5E41D14EF1410E4F630
:104C800008E3FC26FBFA1EF7DE0FFFDE161AF10A18
:104C900011E6F318EBE12111F918FBD60E15D3FB41
:104CA0002AFE0418DFE622F9D7181EF50B02DD07ED
:104CB0001EE3E31B15010BF0E4191AD7E4241304D7
:104CC00007E1EC2913CBEB27140901DBF12B0CCD09
:104CD000F6200C07FDE5FF26F5CE08270902F7E9C7
:104CE0000819E8DA1B20FBFCF7F2170CD1E92B1EA0
:104CF000F5F8F1FB1B02D2F42D18F1F2FB0312F3CD
:104D0000D3043011EFF6FC0508E7E3142705ECF9AE
:104D10000308FDDEF3211DFBF2FB000AF4DB022891
:104D200013F2F7FD0208E6E0122909EEFAFF060386
:104D3000DFE91B2300F1FFFF05FADEF8231BF7F183
:104D4000020205F3E0002015F9F7000203ECE40A83
:104D5000200BF7FD030300E8E50B1F0CF8FB040430
:104D6000FEE8E70A1C0BF9FE0504FEECE70419094E
:104D7000FB000704FDEFE7FF160CFEFF040201FB3A
:104D8000E9F10C0F030106010001ECE706150BFE2B
:104D9000FFFF040CF1DCFC1A0FFDFCFF080EF4DB36
:104DA000F61B15FAF0FC1016F7DAF31916F7EAFC01
:104DB0001616F7E0F11318FAE5F51618FDE7F20DEF
:104DC00016FFE3EE111900F2F8040F09EBE40317E4
:104DD00007F5FE090708F4E2F41214FCF8020708CC
:104DE00004EDE6FC140EF8FB070707FBE6ED0B1BD2
:104DF00000F2FE05070CF7E4F8130EF5F702060BB8
:104E000002EFF4070DFFF0F404110EFCF3F8000BB1
:104E100006EEEC041208FFFFFCFA0601E9ED0919A1
:104E20000DFFF9F5F9100DE5DE051D0C0506F2EB99
:104E30001010DDE2141E010205EAF01D11DBE11085
:104E400015FF0C12EDE00C17E9E61213F70716EB4D
:104E5000D80C24F2E00C10F40721F9CEF820F9E880
:104E6000161CEDEE1B0CD7EA1C08EA091EF2E81727
:104E70001BEADA000DF5072202E5FB1202EAF20A4C
:104E800001F70D12F9F60807F9EFF704FF000F0C10
:104E900000F9F802FFF1FC0AF8F91413FFF6F4FD2B
:104EA000FCF3030DF9FB1511FEF4F0F6F7F71014FF
:104EB000F6FA130BFDF4E7F4FFFE1216F7FA1206EA
:104EC000F9F3E7F501FF161EF9F20A01F7FAEDF220
:104ED00003011320FDEF06FDF3FFF0F40D01071EA3
:104EE00001EC04FEF003F4F11604F81D06E80705D2
:104EF000EA03FAE91A0EEC1507E8100EE5FDFCE1ED
:104F0000161CEE0A07EE110FF2FAF1D80826010579
:104F100005F20B0E01F9E1D9FA231B0802F7FE0C8A
:104F20000BFBDCDBEC142D1700F7F4031102E7DDBB
:104F3000E2FE2D2A08F2F3F90B10F7DEDDED1A314F
:104F400015F6F5F5001A04E4DDE201282608F1F66D
:104F5000F81312EFE4DAEC182A1DF8F7FCFB17FB44
:104F6000EAE5E00320250FF6FDF2080AEEF0E0EF97
:104F700011261F00FAF6F90CF7F6EAE3FC1D270EDE
:104F800000FAF30001FCF1E1F30823180A01F4FD33
:104F900002FEF7E5F0F80D250B06FBFA05FBFEF324
:104FA000EAF7FB1D15FD09F8FD03FD02F1F5FE040E
:104FB0001500FE06F60203FBFEFA01FF030AF5FEEA
:104FC00009FA0600FE06FC01FBFCFCF10805FD14D5
:104FD000090702F7F3EBFCFB0212000D0A0605F5C8
:104FE000FAE6F302FA1A06FF0CF813FCFBF5DFFAF7
:104FF000F41321FE09F40008F605E1F1F70728098A
:1050000003F8EE09FB07F0E8FDF5201905FBEC04B9
:10501000030300DEF8F00F260A03EDFD07010AE79F
:10502000E5F8FA241507F4ED0D0E08FCD3EEF611A1
:105030002709FBE3001A1706E4CCF1FE281E00ED59
:10504000E6131D1BF8CFD2F713350AF6E0F0221F46
:105050001CE3C5DDFE2636FBE9D8F8321D1ADEBD9D
:10506000E4023331F2DFD6FA3B1E13E1BDF1033126
:1050700027EFDADBFE382203F0C2F808211EEDE24A
:10508000E3002F1EF9FED0FD070B15F0F0EC002118
:1050900015F507E3FE03FB0BF5FDF4FD1314F70C08
:1050A000F1F505F207FB01FAF60D17FA0DF5EF051C
:1050B000F404FD03FDF5051BFD0CF8EA04F803FB01
:1050C00004FDF9FC1B040801E102FB04FCFE00FBEB
:1050D000F5190F0509DFF9FB07FFFBFFFFF40E1BB6
:1050E000FE12E0F1FB0606F9FDFE01FA25FA0DF6C7
:1050F000DF03FC0BFDF9F80BF41B08FD0EDB03F8D6
:105100000604F9F40009021FF30CEFF107F60AF5A3
:10511000FAEC11081510ED07E70800FDFDF3F3F4B4
:105120001E091BFAF3FEF012F603ECF9F1FF24045A
:105130001DECFBF6FD0DF303E005ED0C22011CE375
:1051400000F80309F4FDDC0DEE171BFE15E009FA6B
:105150000503F4F8DD11F51B15F80CE311FF06FD4E
:10516000F0F8DC13FE1A11F205E8190204FAEBFB61
:10517000DC120A1311EE00F11709FFF9E7FDDF0E4B
:105180000F0D10ED01F4150EFBFAE6FEEA0215080C
:105190000EF3FCFC0913FAFCEDF3FAF21A0B05F915
:1051A000F503041602F8F3EFF9F60A1D00FAF00110
:1051B000061110F6F8EDF0F9011F11F0F0F50A10E4
:1051C0001304F2F1EAF0051322F6E7EF0216120FCC
:1051D000F6F2EAE6020F1B10E6E6F60F181505F4E4
:1051E000E8E6F20D1519FFDFE9FF151C1302EDE3E8
:1051F000E8FB111419F3E6E302171B1C00EAE0E7D1
:10520000FB130D1FF6EDE1F812182303FBE3ECEDA1
:1052100007FF0E12FAFCEB0606080C06FFF8F9F57C
:10522000FDFCFC03F703040305FE07FE0304FE0177
:1052300002FCF9F2FAFCFDFF0307050A0002020571
:1052400007FAFCF8F1F6F7000004050206080A0464
:105250000603FEF6F6F9F9FAFAFAFC010405080D60
:105260000A06010400FBF8F0F6F9FAFEFAFD000068
:105270000A0E130D06FEF7FEF8FCFAF7F3F5F4FC40
:1052800004070A0A09070A040A02FDF7F5F7F5F60A
:10529000F4F6F8FE030C0F120808080505FDFCF6ED
:1052A000F4F1EFF3F9FC0104090B09080B0E0D06EC
:1052B000FDF8F7F5F3F5F6F7F5F8FD030B0A0C0B1F
:1052C0000F0F0805FFFDF7F5F2F4F6F6F6F5FE030D
:1052D000070A0A0F110B08030402FDF9F5F5F1F1B5
:1052E000EEF7FC030404090B110F0F0C0803FBF885
:1052F000F7F5F2EEF0F2F7FC0006090E11110D0DB4
:10530000080402FEFBF4F1EEEEF1F5FBFE030609E4
:105310000C0F12100C0702FDF8F6F4F3F2F0F2F5A0
:10532000FC0107080A0D0C0C0B0B0602FCF9F6F643
:10533000F6F5F3F4F7FBFE0307090D0A0B08080660
:1053400001FFFBFBF8F4F4F4F6F8FBFE0003070999
:105350000A0A0B08040200FFFCFAF7F4F4F5FAFC61
:10536000FF000106070D0A0B070301FE00FCFAF718
:10537000F5F6F9FCFDFEFF0203090B0E0C0704FE17
:10538000FCFBF9F9F8F5F9FAFC010105050A0A0C2C
:10539000090202F8F7F6F5FAFAFDFF000403040526
:1053A00003080305FFFBFCF4FDF9FE0104080306F6
:1053B000FBFFFAFB03FE08FF03FDFBFEFC07070BE8
:1053C00004F9F2EEEFFB030C0E0D0702FCF8FD01F1
:1053D0000706F7F1EBE9FA001313160D05FDF4F9D2
:1053E000FD0407F5EEE9E4FFFE1A1418100301F2BC
:1053F000FBFF0409EEE9E4DE02FF211719120002A7
:10540000EFFB000409E9EAE0E206032615190CFCAB
:10541000FFED00050A06E2E9D7E9090A2D141A048E
:10542000F9F8EA03060F00E2EBD5F608122A0F1A84
:10543000FBFAF2EF080A13F6E2E5D7000A1D240E84
:1054400011F4F5EDFA0F1511EEDCDDDD071325245F
:105450000807E9EDEE02191A0EE6D5DCE3121C2866
:1054600021FD00E0EBF509221906E0CCDFE91B2560
:105470002921F0F9D7EC000F291501DAC9E0EE2354
:1054800028291BE9F2D8F307162311F8DECCE2F441
:105490001D2B2219E9EFDEF50B131E0FF9E8D5E0FD
:1054A000F50C271D1CF6EFE6EE070D1812FEF3E1D2
:1054B000D7F3FC22201E08EAEBE3010C191903F6CE
:1054C000E8D0EBF515291E18EEE9DFF40B181F0CD8
:1054D000F8EFD5DDF105282320FEE9DEE9021721EA
:1054E00016FEF0E0D6EAFC1A26230CF3DEE4F610F2
:1054F000221B09F1E6DCE0F50D1E271402E6E0EFC1
:10550000011F1C14F7E8E4E2EB0313201F09F8DE87
:10551000EAF411201908EAE5E5E9F50F1222120371
:10552000EDE1F1FC1E1D18F9E6DEE8EE0310151E94
:105530000702E5EAEF051E1D14F3E3DBE9F60E0EA4
:1055400019160202E4F0F0091D1914F0E3D8EAFC80
:10555000140F190DFD01E5FAF20B171412EEE7D93D
:10556000EB0212111207FA00F001FB090F080DEE11
:10557000F1E1F2020D0F0506EF04F80A0B030FF537
:1055800003F0F3F5F707030BFB04EFFC06061D041D
:105590000EF2F1F4EE05FB0B0002FEF9FFE90A0240
:1055A000181A0508E3F5E8FC09020FF702F6FFF800
:1055B000F10C011E110BFFE6F3E70205090BFC00DD
:1055C000F6FFF2F60C021C110B01EAF1E8FC030BEA
:1055D0000D04FCF6F7EFFD0A0C13150701F4EEECD1
:1055E000F204061009FEF7EDF1FA09180F1208FA95
:1055F000FEEEF4F5FC05070BFFF6F3EDFA0A1916BB
:10560000060AF8FDF9F7FBF801FF0301FBF6F3F9D1
:10561000091017030505FA01F6FCFAFC00FFFDFE70
:10562000F4FBFC010E0B0C010B0502F3F8F4FB0775
:10563000FE0AF4F9EEFB0206110709020D0803EF5A
:10564000F3F2FA0E050CF3F1ECF8050A0E0408016A
:105650000C0A08EFEFF4FA0E0805F3F1F100060466
:1056600006FF03050E0F07F8ECF3000B05FBF1F343
:10567000F9090B03FFF0FD0013120DFEF0F9FB1307
:1056800003F5EAE701081A0CFAF1E200031B0E0821
:10569000FCF30AFD15F8EDE1EA05131F0CF6E9E746
:1056A000F90C1010FF00FD0F090DFDE6DFE30013FC
:1056B0002411FDE7E8F2060E0C03FA040C1B0D049E
:1056C000EADAE0F2101B1E02EDE2ED01101405F61D
:1056D000F60013210B04E2DEE7F6191318F6E2E5F3
:1056E000F3121815FFECEBFE142814FFEBD4F0F5C1
:1056F00019150BFCDCEFF2151814FEEBE7F7121A84
:105700001EFEF5E7EDFE060F04FFF5F4FC020804AB
:1057100002FEFDFEFFFEFF020205FDFEF6FBFB059D
:105720000A0604F6F7FA070E0E02FAF2EEF1040B7F
:10573000140CFCF6EBF5F30D071006F7F6F407086A
:105740001303FDF3EFF107141411F2F3E8F9F70670
:105750000D010BF4FBF501060507FC01F8FBFD0B41
:105760000C0C04FBFEF5FCE9FAFD0610FF04EFFC4F
:10577000FC040DFE03F2F9FF0F180D07F5FBF6F917
:10578000F0F2FDFB0E0409FDFAFBF702FD03060231
:1057900005080605FD00FF0702F5EBE6F8FE120C12
:1057A00009FEF7FCF604FD01050007080808FCFCEB
:1057B000F70000FBFAEFFCFA09080906FDFCF2FB12
:1057C000FB05070B020700FB02F704FB0402FB01C9
:1057D000F3FCF8FD06030B0404FFF8F8F6030705D5
:1057E00008FF01000006FF00F6F8FAFD01F8FDFAD7
:1057F00004080C0B01FBF4F2FC06090C0201000288
:1058000005FFFEF6F7FCF901FAFCFBFF08060D01A7
:1058100002F8FCF8F806FB0C0309090108F4FDF492
:10582000FB020007F5FBF1FC06080E0000F8FC0087
:105830000001FEFB00040A0D0906F8F2F2F8050A61
:1058400009FFF1EFEF010B1110FDF8F0FC06090B59
:10585000FEFAF7FD09090C02F9F6F6FE030700F956
:10586000F1F4FD060D0B04FBF7FA040A0D01F8F440
:10587000F404091009FFF9F1F9FE080903FBF2F03D
:10588000F8FE060907080000FC000003FEFCFCFC13
:1058900005030A0301FDF8FBF903020200F9F8F71A
:1058A000FFFF03050305FD00FF01070402FBF8FBF2
:1058B00000070904FEF8FAFF040703FBF7F6F9FFF7
:1058C000020301FFFCFFFE03030403FE02FE01FED0
:1058D000FFFFFF01FFFEFDFF02050603FDF9F6FADB
:1058E000FC010101FF00FF00FFFF01FF03FF0201B8
:1058F0000100FFFFFEFFFDFEFD0103070702FFF9A8
:10590000F9FAFDFFFDFFFC01020102FCFDFDFF04B1
:1059100001020100030003FDFDFBFC01020604057A
:1059200002FFFCFBFDFD00FBFBFAFE040404FFFC90
:10593000FAFD000503040200010001FCFBFBFC0270
:105940000406040100FBFEFE0102FFFEF8FCFC0061
:10595000050204FEFCFDFB020205030000FBFFFF45
:105960000102FFFDFDFE02040302FEFFFF0202FF33
:10597000FFF8FAFBFF06040501FDFCFC010103032F
:105980000102FF00FFFF0000FFFBFBFCFE0305041C
:1059900002FDFEFDFF01FE02FBFCFEFE0805060106
:1059A000FBFBF801030503FCFCF9FE040405FEFC07
:1059B000FAFD02050601FEF8FAFE02050300FEFDEF
:1059C00000000202FEFFFCFF0303060201FEFC00D2
:1059D000FE0400FDFCF6FBFD04070402FBFAFBFEDF
:1059E000040405FEFBFBFC04050400FAFBFC0206B4
:1059F0000504FEFCFE01060503FFFBFDFD0102FFA1
:105A0000FDF9F9FAFF04050400FCFBFB00020302A8
:105A1000FDFEFD01040203FEFDFEFE03020202FE86
:105A2000FEFCFE000002FFFF00FE00FEFDFEFE0188
:105A3000020100FDFDFD0002030301FEFEFF010463
:105A4000040200FDFDFE000100FFFCFBFBFD000267
:105A50000301FFFDFDFE01010101FFFF0001010146
:105A600000FFFF0002020201FFFFFEFEFFFEFEFE3E
:105A7000FDFEFEFF0102020000FFFF00000000FF2C
:105A8000FFFFFFFFFEFF00000000FFFEFFFF000022
:105A900000000000FFFFFFFFFFFFFF00000000FF0E
:105AA000FFFFFF000000010001000000FF000000F8
:105AB0000000FFFFFDFDFDFEFEFEFEFEFFFFFF00FE
:105AC000000001010000000101010100000000FFD1
:105AD000FFFFFFFEFEFEFEFEFEFFFFFFFF000000D9
